{
  "contractName": "BacchusVaultERC1155",
  "abi": [
    {
      "inputs": [],
      "stateMutability": "nonpayable",
      "type": "constructor"
    },
    {
      "anonymous": false,
      "inputs": [
        {
          "indexed": true,
          "internalType": "address",
          "name": "account",
          "type": "address"
        },
        {
          "indexed": true,
          "internalType": "address",
          "name": "operator",
          "type": "address"
        },
        {
          "indexed": false,
          "internalType": "bool",
          "name": "approved",
          "type": "bool"
        }
      ],
      "name": "ApprovalForAll",
      "type": "event"
    },
    {
      "anonymous": false,
      "inputs": [
        {
          "indexed": true,
          "internalType": "address",
          "name": "previousOwner",
          "type": "address"
        },
        {
          "indexed": true,
          "internalType": "address",
          "name": "newOwner",
          "type": "address"
        }
      ],
      "name": "OwnershipTransferred",
      "type": "event"
    },
    {
      "anonymous": false,
      "inputs": [
        {
          "indexed": false,
          "internalType": "address",
          "name": "account",
          "type": "address"
        }
      ],
      "name": "Paused",
      "type": "event"
    },
    {
      "anonymous": false,
      "inputs": [
        {
          "indexed": true,
          "internalType": "address",
          "name": "operator",
          "type": "address"
        },
        {
          "indexed": true,
          "internalType": "address",
          "name": "from",
          "type": "address"
        },
        {
          "indexed": true,
          "internalType": "address",
          "name": "to",
          "type": "address"
        },
        {
          "indexed": false,
          "internalType": "uint256[]",
          "name": "ids",
          "type": "uint256[]"
        },
        {
          "indexed": false,
          "internalType": "uint256[]",
          "name": "values",
          "type": "uint256[]"
        }
      ],
      "name": "TransferBatch",
      "type": "event"
    },
    {
      "anonymous": false,
      "inputs": [
        {
          "indexed": true,
          "internalType": "address",
          "name": "operator",
          "type": "address"
        },
        {
          "indexed": true,
          "internalType": "address",
          "name": "from",
          "type": "address"
        },
        {
          "indexed": true,
          "internalType": "address",
          "name": "to",
          "type": "address"
        },
        {
          "indexed": false,
          "internalType": "uint256",
          "name": "id",
          "type": "uint256"
        },
        {
          "indexed": false,
          "internalType": "uint256",
          "name": "value",
          "type": "uint256"
        }
      ],
      "name": "TransferSingle",
      "type": "event"
    },
    {
      "anonymous": false,
      "inputs": [
        {
          "indexed": false,
          "internalType": "string",
          "name": "value",
          "type": "string"
        },
        {
          "indexed": true,
          "internalType": "uint256",
          "name": "id",
          "type": "uint256"
        }
      ],
      "name": "URI",
      "type": "event"
    },
    {
      "anonymous": false,
      "inputs": [
        {
          "indexed": false,
          "internalType": "address",
          "name": "account",
          "type": "address"
        }
      ],
      "name": "Unpaused",
      "type": "event"
    },
    {
      "inputs": [
        {
          "internalType": "address",
          "name": "_gouvernanceAddress",
          "type": "address"
        }
      ],
      "name": "_setGouvernanceAddress",
      "outputs": [],
      "stateMutability": "nonpayable",
      "type": "function"
    },
    {
      "inputs": [
        {
          "internalType": "address",
          "name": "account",
          "type": "address"
        },
        {
          "internalType": "uint256",
          "name": "id",
          "type": "uint256"
        }
      ],
      "name": "balanceOf",
      "outputs": [
        {
          "internalType": "uint256",
          "name": "",
          "type": "uint256"
        }
      ],
      "stateMutability": "view",
      "type": "function",
      "constant": true
    },
    {
      "inputs": [
        {
          "internalType": "address[]",
          "name": "accounts",
          "type": "address[]"
        },
        {
          "internalType": "uint256[]",
          "name": "ids",
          "type": "uint256[]"
        }
      ],
      "name": "balanceOfBatch",
      "outputs": [
        {
          "internalType": "uint256[]",
          "name": "",
          "type": "uint256[]"
        }
      ],
      "stateMutability": "view",
      "type": "function",
      "constant": true
    },
    {
      "inputs": [
        {
          "internalType": "uint256",
          "name": "",
          "type": "uint256"
        }
      ],
      "name": "bottles",
      "outputs": [
        {
          "internalType": "uint256",
          "name": "maxSupply",
          "type": "uint256"
        },
        {
          "internalType": "uint256",
          "name": "mintPrice",
          "type": "uint256"
        },
        {
          "internalType": "uint256",
          "name": "currentSuggestedPrice",
          "type": "uint256"
        },
        {
          "internalType": "uint256",
          "name": "actualSellingPrice",
          "type": "uint256"
        },
        {
          "internalType": "enum BottleStatus",
          "name": "bottleStatus",
          "type": "uint8"
        }
      ],
      "stateMutability": "view",
      "type": "function",
      "constant": true
    },
    {
      "inputs": [
        {
          "internalType": "address",
          "name": "account",
          "type": "address"
        },
        {
          "internalType": "uint256",
          "name": "id",
          "type": "uint256"
        },
        {
          "internalType": "uint256",
          "name": "value",
          "type": "uint256"
        }
      ],
      "name": "burn",
      "outputs": [],
      "stateMutability": "nonpayable",
      "type": "function"
    },
    {
      "inputs": [
        {
          "internalType": "address",
          "name": "account",
          "type": "address"
        },
        {
          "internalType": "uint256[]",
          "name": "ids",
          "type": "uint256[]"
        },
        {
          "internalType": "uint256[]",
          "name": "values",
          "type": "uint256[]"
        }
      ],
      "name": "burnBatch",
      "outputs": [],
      "stateMutability": "nonpayable",
      "type": "function"
    },
    {
      "inputs": [
        {
          "internalType": "uint256",
          "name": "id",
          "type": "uint256"
        }
      ],
      "name": "exists",
      "outputs": [
        {
          "internalType": "bool",
          "name": "",
          "type": "bool"
        }
      ],
      "stateMutability": "view",
      "type": "function",
      "constant": true
    },
    {
      "inputs": [
        {
          "internalType": "uint256",
          "name": "_id",
          "type": "uint256"
        }
      ],
      "name": "getBottle",
      "outputs": [
        {
          "components": [
            {
              "internalType": "uint256",
              "name": "maxSupply",
              "type": "uint256"
            },
            {
              "internalType": "uint256",
              "name": "mintPrice",
              "type": "uint256"
            },
            {
              "internalType": "uint256",
              "name": "currentSuggestedPrice",
              "type": "uint256"
            },
            {
              "internalType": "uint256",
              "name": "actualSellingPrice",
              "type": "uint256"
            },
            {
              "internalType": "enum BottleStatus",
              "name": "bottleStatus",
              "type": "uint8"
            }
          ],
          "internalType": "struct BottlesSupply.Bottle",
          "name": "",
          "type": "tuple"
        }
      ],
      "stateMutability": "view",
      "type": "function",
      "constant": true
    },
    {
      "inputs": [
        {
          "internalType": "uint256",
          "name": "_id",
          "type": "uint256"
        }
      ],
      "name": "getBottleStatus",
      "outputs": [
        {
          "internalType": "enum BottleStatus",
          "name": "",
          "type": "uint8"
        }
      ],
      "stateMutability": "view",
      "type": "function",
      "constant": true
    },
    {
      "inputs": [],
      "name": "getGovernanceAddress",
      "outputs": [
        {
          "internalType": "address",
          "name": "",
          "type": "address"
        }
      ],
      "stateMutability": "view",
      "type": "function",
      "constant": true
    },
    {
      "inputs": [
        {
          "internalType": "uint256",
          "name": "_id",
          "type": "uint256"
        }
      ],
      "name": "getMaxSupply",
      "outputs": [
        {
          "internalType": "uint256",
          "name": "",
          "type": "uint256"
        }
      ],
      "stateMutability": "view",
      "type": "function",
      "constant": true
    },
    {
      "inputs": [
        {
          "internalType": "uint256",
          "name": "_id",
          "type": "uint256"
        }
      ],
      "name": "getMintPrice",
      "outputs": [
        {
          "internalType": "uint256",
          "name": "",
          "type": "uint256"
        }
      ],
      "stateMutability": "view",
      "type": "function",
      "constant": true
    },
    {
      "inputs": [
        {
          "internalType": "address",
          "name": "account",
          "type": "address"
        },
        {
          "internalType": "address",
          "name": "operator",
          "type": "address"
        }
      ],
      "name": "isApprovedForAll",
      "outputs": [
        {
          "internalType": "bool",
          "name": "",
          "type": "bool"
        }
      ],
      "stateMutability": "view",
      "type": "function",
      "constant": true
    },
    {
      "inputs": [],
      "name": "owner",
      "outputs": [
        {
          "internalType": "address",
          "name": "",
          "type": "address"
        }
      ],
      "stateMutability": "view",
      "type": "function",
      "constant": true
    },
    {
      "inputs": [],
      "name": "paused",
      "outputs": [
        {
          "internalType": "bool",
          "name": "",
          "type": "bool"
        }
      ],
      "stateMutability": "view",
      "type": "function",
      "constant": true
    },
    {
      "inputs": [],
      "name": "renounceOwnership",
      "outputs": [],
      "stateMutability": "nonpayable",
      "type": "function"
    },
    {
      "inputs": [
        {
          "internalType": "uint256",
          "name": "_tokenId",
          "type": "uint256"
        },
        {
          "internalType": "uint256",
          "name": "_salePrice",
          "type": "uint256"
        }
      ],
      "name": "royaltyInfo",
      "outputs": [
        {
          "internalType": "address",
          "name": "",
          "type": "address"
        },
        {
          "internalType": "uint256",
          "name": "",
          "type": "uint256"
        }
      ],
      "stateMutability": "view",
      "type": "function",
      "constant": true
    },
    {
      "inputs": [
        {
          "internalType": "address",
          "name": "from",
          "type": "address"
        },
        {
          "internalType": "address",
          "name": "to",
          "type": "address"
        },
        {
          "internalType": "uint256[]",
          "name": "ids",
          "type": "uint256[]"
        },
        {
          "internalType": "uint256[]",
          "name": "amounts",
          "type": "uint256[]"
        },
        {
          "internalType": "bytes",
          "name": "data",
          "type": "bytes"
        }
      ],
      "name": "safeBatchTransferFrom",
      "outputs": [],
      "stateMutability": "nonpayable",
      "type": "function"
    },
    {
      "inputs": [
        {
          "internalType": "address",
          "name": "from",
          "type": "address"
        },
        {
          "internalType": "address",
          "name": "to",
          "type": "address"
        },
        {
          "internalType": "uint256",
          "name": "id",
          "type": "uint256"
        },
        {
          "internalType": "uint256",
          "name": "amount",
          "type": "uint256"
        },
        {
          "internalType": "bytes",
          "name": "data",
          "type": "bytes"
        }
      ],
      "name": "safeTransferFrom",
      "outputs": [],
      "stateMutability": "nonpayable",
      "type": "function"
    },
    {
      "inputs": [
        {
          "internalType": "address",
          "name": "operator",
          "type": "address"
        },
        {
          "internalType": "bool",
          "name": "approved",
          "type": "bool"
        }
      ],
      "name": "setApprovalForAll",
      "outputs": [],
      "stateMutability": "nonpayable",
      "type": "function"
    },
    {
      "inputs": [
        {
          "internalType": "uint256",
          "name": "bottleId",
          "type": "uint256"
        },
        {
          "internalType": "uint256",
          "name": "price",
          "type": "uint256"
        }
      ],
      "name": "setBottleActualSellingPrice",
      "outputs": [],
      "stateMutability": "nonpayable",
      "type": "function"
    },
    {
      "inputs": [
        {
          "internalType": "uint256",
          "name": "_id",
          "type": "uint256"
        }
      ],
      "name": "setBottleStatusToPublicMinting",
      "outputs": [],
      "stateMutability": "nonpayable",
      "type": "function"
    },
    {
      "inputs": [
        {
          "internalType": "uint256",
          "name": "_id",
          "type": "uint256"
        }
      ],
      "name": "setBottleStatusToReadyToBurn",
      "outputs": [],
      "stateMutability": "nonpayable",
      "type": "function"
    },
    {
      "inputs": [
        {
          "internalType": "uint256",
          "name": "_id",
          "type": "uint256"
        }
      ],
      "name": "setBottleStatusToSold",
      "outputs": [],
      "stateMutability": "nonpayable",
      "type": "function"
    },
    {
      "inputs": [
        {
          "internalType": "uint256",
          "name": "_id",
          "type": "uint256"
        }
      ],
      "name": "setBottleStatusToWhiteListMinting",
      "outputs": [],
      "stateMutability": "nonpayable",
      "type": "function"
    },
    {
      "inputs": [
        {
          "internalType": "uint256",
          "name": "id",
          "type": "uint256"
        }
      ],
      "name": "totalSupply",
      "outputs": [
        {
          "internalType": "uint256",
          "name": "",
          "type": "uint256"
        }
      ],
      "stateMutability": "view",
      "type": "function",
      "constant": true
    },
    {
      "inputs": [
        {
          "internalType": "address",
          "name": "newOwner",
          "type": "address"
        }
      ],
      "name": "transferOwnership",
      "outputs": [],
      "stateMutability": "nonpayable",
      "type": "function"
    },
    {
      "inputs": [],
      "name": "getCurrentId",
      "outputs": [
        {
          "internalType": "uint256",
          "name": "",
          "type": "uint256"
        }
      ],
      "stateMutability": "view",
      "type": "function",
      "constant": true
    },
    {
      "inputs": [
        {
          "internalType": "bool",
          "name": "voting",
          "type": "bool"
        }
      ],
      "name": "setVoting",
      "outputs": [],
      "stateMutability": "nonpayable",
      "type": "function"
    },
    {
      "inputs": [],
      "name": "getVoting",
      "outputs": [
        {
          "internalType": "bool",
          "name": "",
          "type": "bool"
        }
      ],
      "stateMutability": "view",
      "type": "function",
      "constant": true
    },
    {
      "inputs": [
        {
          "internalType": "address",
          "name": "_address",
          "type": "address"
        }
      ],
      "name": "isAddressInwhitelist",
      "outputs": [
        {
          "internalType": "bool",
          "name": "",
          "type": "bool"
        }
      ],
      "stateMutability": "view",
      "type": "function",
      "constant": true
    },
    {
      "inputs": [
        {
          "internalType": "address",
          "name": "_address",
          "type": "address"
        }
      ],
      "name": "addAddressTowhitelist",
      "outputs": [],
      "stateMutability": "nonpayable",
      "type": "function"
    },
    {
      "inputs": [
        {
          "internalType": "address",
          "name": "_address",
          "type": "address"
        }
      ],
      "name": "removeAddressTowhitelist",
      "outputs": [],
      "stateMutability": "nonpayable",
      "type": "function"
    },
    {
      "inputs": [
        {
          "internalType": "uint256",
          "name": "_maxSupply",
          "type": "uint256"
        },
        {
          "internalType": "uint256",
          "name": "_mintPrice",
          "type": "uint256"
        },
        {
          "internalType": "string",
          "name": "_cid",
          "type": "string"
        }
      ],
      "name": "initNewToken",
      "outputs": [
        {
          "internalType": "uint256",
          "name": "",
          "type": "uint256"
        }
      ],
      "stateMutability": "nonpayable",
      "type": "function"
    },
    {
      "inputs": [
        {
          "internalType": "uint256",
          "name": "_id",
          "type": "uint256"
        }
      ],
      "name": "setBottleStatusToHold",
      "outputs": [],
      "stateMutability": "nonpayable",
      "type": "function"
    },
    {
      "inputs": [
        {
          "internalType": "uint256",
          "name": "_id",
          "type": "uint256"
        }
      ],
      "name": "setBottleStatusToReadyToBeSold",
      "outputs": [],
      "stateMutability": "nonpayable",
      "type": "function"
    },
    {
      "inputs": [
        {
          "internalType": "uint256",
          "name": "_id",
          "type": "uint256"
        },
        {
          "internalType": "uint256",
          "name": "_amount",
          "type": "uint256"
        }
      ],
      "name": "whiteListMint",
      "outputs": [],
      "stateMutability": "payable",
      "type": "function",
      "payable": true
    },
    {
      "inputs": [
        {
          "internalType": "uint256",
          "name": "_id",
          "type": "uint256"
        },
        {
          "internalType": "uint256",
          "name": "_amount",
          "type": "uint256"
        }
      ],
      "name": "publicMint",
      "outputs": [],
      "stateMutability": "payable",
      "type": "function",
      "payable": true
    },
    {
      "inputs": [
        {
          "internalType": "uint256",
          "name": "tokenId",
          "type": "uint256"
        }
      ],
      "name": "uri",
      "outputs": [
        {
          "internalType": "string",
          "name": "",
          "type": "string"
        }
      ],
      "stateMutability": "view",
      "type": "function",
      "constant": true
    },
    {
      "inputs": [
        {
          "internalType": "string",
          "name": "_baseURI",
          "type": "string"
        }
      ],
      "name": "setBaseURI",
      "outputs": [],
      "stateMutability": "nonpayable",
      "type": "function"
    },
    {
      "inputs": [
        {
          "internalType": "uint256",
          "name": "_tokenId",
          "type": "uint256"
        },
        {
          "internalType": "string",
          "name": "_cid",
          "type": "string"
        }
      ],
      "name": "setTokenURI",
      "outputs": [],
      "stateMutability": "nonpayable",
      "type": "function"
    },
    {
      "inputs": [],
      "name": "name",
      "outputs": [
        {
          "internalType": "string",
          "name": "",
          "type": "string"
        }
      ],
      "stateMutability": "pure",
      "type": "function",
      "constant": true
    },
    {
      "inputs": [
        {
          "internalType": "address",
          "name": "_receiver",
          "type": "address"
        },
        {
          "internalType": "uint96",
          "name": "_percentage",
          "type": "uint96"
        }
      ],
      "name": "setDefaultRoyalty",
      "outputs": [],
      "stateMutability": "nonpayable",
      "type": "function"
    },
    {
      "inputs": [
        {
          "internalType": "uint256",
          "name": "_tokenId",
          "type": "uint256"
        },
        {
          "internalType": "address",
          "name": "_receiver",
          "type": "address"
        },
        {
          "internalType": "uint96",
          "name": "_percentage",
          "type": "uint96"
        }
      ],
      "name": "setTokenRoyalty",
      "outputs": [],
      "stateMutability": "nonpayable",
      "type": "function"
    },
    {
      "inputs": [],
      "name": "deleteDefaultRoyalty",
      "outputs": [],
      "stateMutability": "nonpayable",
      "type": "function"
    },
    {
      "inputs": [
        {
          "internalType": "uint256",
          "name": "_tokenId",
          "type": "uint256"
        }
      ],
      "name": "resetTokenRoyalty",
      "outputs": [],
      "stateMutability": "nonpayable",
      "type": "function"
    },
    {
      "inputs": [],
      "name": "pause",
      "outputs": [],
      "stateMutability": "nonpayable",
      "type": "function"
    },
    {
      "inputs": [],
      "name": "unpause",
      "outputs": [],
      "stateMutability": "nonpayable",
      "type": "function"
    },
    {
      "inputs": [
        {
          "internalType": "bytes4",
          "name": "interfaceId",
          "type": "bytes4"
        }
      ],
      "name": "supportsInterface",
      "outputs": [
        {
          "internalType": "bool",
          "name": "",
          "type": "bool"
        }
      ],
      "stateMutability": "view",
      "type": "function",
      "constant": true
    }
  ],
  "bytecode": "0x60a0604052600060809081526004906200001a9082620001a5565b503480156200002857600080fd5b5060408051602081019091526000808252805460ff191690556200004c3362000087565b6200005781620000e0565b50604080518082019091526007815266697066733a2f2f60c81b60208201526200008190620000f2565b62000271565b600080546001600160a01b03838116610100818102610100600160a81b0319851617855560405193049190911692909183917f8be0079c531659141344cd1fd0a4f28419497f9722a3daafe3b4186f6b6457e091a35050565b6003620000ee8282620001a5565b5050565b6004620000ee8282620001a5565b634e487b7160e01b600052604160045260246000fd5b600181811c908216806200012b57607f821691505b6020821081036200014c57634e487b7160e01b600052602260045260246000fd5b50919050565b601f821115620001a057600081815260208120601f850160051c810160208610156200017b5750805b601f850160051c820191505b818110156200019c5782815560010162000187565b5050505b505050565b81516001600160401b03811115620001c157620001c162000100565b620001d981620001d2845462000116565b8462000152565b602080601f831160018114620002115760008415620001f85750858301515b600019600386901b1c1916600185901b1785556200019c565b600085815260208120601f198616915b82811015620002425788860151825594840194600190910190840162000221565b5085821015620002615787850151600019600388901b60f8161c191681555b5050505050600190811b01905550565b613aef80620002816000396000f3fe6080604052600436106102ad5760003560e01c806370d71bbe11610175578063b941ccd4116100dc578063d910b7d211610095578063f242432a1161006f578063f242432a1461095c578063f2fde38b1461097c578063f5298aca1461099c578063f7fe47ec146109bc57600080fd5b8063d910b7d214610895578063dac6971a146108b5578063e985e9c51461091357600080fd5b8063b941ccd4146107c8578063ba36e5e3146107e8578063bd85b03914610808578063ce24359c14610835578063cfd00fe114610848578063d54db8a71461086857600080fd5b80638da5cb5b1161012e5780638da5cb5b1461071d5780638ee66fce1461074057806398ae99a814610760578063a22cb46514610773578063a52aea4c14610793578063aa1b103f146107b357600080fd5b806370d71bbe14610661578063715018a614610681578063732524941461069657806377f5b06f146106c85780638456cb59146106e85780638a616bc0146106fd57600080fd5b806338945e17116102195780635944c753116101d25780635944c753146105875780635c975abb146105a75780635e495d74146105bf5780636b20c454146105ec5780636c1438621461060c5780636eedc78b1461062157600080fd5b806338945e171461048d5780633f4ba83a146104c65780634e1273f4146104db5780634f558e7914610508578063559e775b1461053757806355f804b31461056757600080fd5b8063162094c41161026b578063162094c4146103b65780631986d376146103d65780632a55205a146103ee5780632d4280d51461042d5780632eb2c2d61461044d5780632ff4b3061461046d57600080fd5b8062fdd58e146102b257806301ffc9a7146102e557806304634d8d1461031557806306fdde03146103375780630e89341c1461037657806315cb4bb914610396575b600080fd5b3480156102be57600080fd5b506102d26102cd366004612c99565b6109dc565b6040519081526020015b60405180910390f35b3480156102f157600080fd5b50610305610300366004612cd9565b610a77565b60405190151581526020016102dc565b34801561032157600080fd5b50610335610330366004612d0d565b610a9c565b005b34801561034357600080fd5b5060408051808201909152600d81526c109858d8da1d5cc815985d5b1d609a1b60208201525b6040516102dc9190612d90565b34801561038257600080fd5b50610369610391366004612da3565b610b17565b3480156103a257600080fd5b506103356103b1366004612dbc565b610b22565b3480156103c257600080fd5b506103356103d1366004612e93565b610b61565b3480156103e257600080fd5b50600d5460ff16610305565b3480156103fa57600080fd5b5061040e610409366004612dbc565b610b77565b604080516001600160a01b0390931683526020830191909152016102dc565b34801561043957600080fd5b506102d2610448366004612ed9565b610c23565b34801561045957600080fd5b50610335610468366004612fbc565b610cfb565b34801561047957600080fd5b50610335610488366004612da3565b610d47565b34801561049957600080fd5b506103056104a8366004613065565b6001600160a01b03166000908152600c602052604090205460ff1690565b3480156104d257600080fd5b50610335610de2565b3480156104e757600080fd5b506104fb6104f6366004613080565b610df4565b6040516102dc919061317b565b34801561051457600080fd5b50610305610523366004612da3565b600090815260086020526040902054151590565b34801561054357600080fd5b506102d2610552366004612da3565b60009081526009602052604090206001015490565b34801561057357600080fd5b5061033561058236600461318e565b610f1d565b34801561059357600080fd5b506103356105a23660046131c2565b610f31565b3480156105b357600080fd5b5060005460ff16610305565b3480156105cb57600080fd5b506102d26105da366004612da3565b60009081526009602052604090205490565b3480156105f857600080fd5b506103356106073660046131fe565b610fae565b34801561061857600080fd5b506102d2610ff1565b34801561062d57600080fd5b5061065461063c366004612da3565b60009081526009602052604090206004015460ff1690565b6040516102dc919061329f565b34801561066d57600080fd5b5061033561067c366004612da3565b611001565b34801561068d57600080fd5b506103356110c3565b3480156106a257600080fd5b50600a546001600160a01b03165b6040516001600160a01b0390911681526020016102dc565b3480156106d457600080fd5b506103356106e3366004612da3565b6110d5565b3480156106f457600080fd5b50610335611169565b34801561070957600080fd5b50610335610718366004612da3565b611179565b34801561072957600080fd5b5060005461010090046001600160a01b03166106b0565b34801561074c57600080fd5b5061033561075b366004612da3565b611192565b61033561076e366004612dbc565b61123c565b34801561077f57600080fd5b5061033561078e3660046132bd565b6112bb565b34801561079f57600080fd5b506103356107ae366004613065565b6112c6565b3480156107bf57600080fd5b50610335611360565b3480156107d457600080fd5b506103356107e3366004612da3565b611372565b3480156107f457600080fd5b50610335610803366004613065565b611429565b34801561081457600080fd5b506102d2610823366004612da3565b60009081526008602052604090205490565b610335610843366004612dbc565b611452565b34801561085457600080fd5b506103356108633660046132e7565b611526565b34801561087457600080fd5b50610888610883366004612da3565b611563565b6040516102dc9190613302565b3480156108a157600080fd5b506103356108b0366004613065565b6115ef565b3480156108c157600080fd5b506109026108d0366004612da3565b600960205260009081526040902080546001820154600283015460038401546004909401549293919290919060ff1685565b6040516102dc959493929190613345565b34801561091f57600080fd5b5061030561092e366004613379565b6001600160a01b03918216600090815260026020908152604080832093909416825291909152205460ff1690565b34801561096857600080fd5b506103356109773660046133a3565b61161b565b34801561098857600080fd5b50610335610997366004613065565b611660565b3480156109a857600080fd5b506103356109b7366004613407565b6116d6565b3480156109c857600080fd5b506103356109d7366004612da3565b611719565b60006001600160a01b038316610a4c5760405162461bcd60e51b815260206004820152602a60248201527f455243313135353a2061646472657373207a65726f206973206e6f742061207660448201526930b634b21037bbb732b960b11b60648201526084015b60405180910390fd5b5060008181526001602090815260408083206001600160a01b03861684529091529020545b92915050565b60006001600160e01b0319821663152a902d60e11b1480610a715750610a7182611811565b610aa4611836565b6064816001600160601b03161115610af95760405162461bcd60e51b815260206004820152601860248201527763616e277420736574206d6f7265207468616e203130302560401b6044820152606401610a43565b6000610b06826064613450565b9050610b128382611896565b505050565b6060610a7182611950565b600a546001600160a01b03163314610b4c5760405162461bcd60e51b8152600401610a439061347b565b60009182526009602052604090912060030155565b610b69611836565b610b738282611a30565b5050565b60008281526007602090815260408083208151808301909252546001600160a01b038116808352600160a01b9091046001600160601b0316928201929092528291610bec5750604080518082019091526006546001600160a01b0381168252600160a01b90046001600160601b031660208201525b602081015160009061271090610c0b906001600160601b0316876134a7565b610c1591906134be565b915196919550909350505050565b6000610c2d611836565b60008311610c725760405162461bcd60e51b81526020600482015260126024820152716d696e7420707269636520746f6f206c6f7760701b6044820152606401610a43565b60008411610cb35760405162461bcd60e51b815260206004820152600e60248201526d737570706c7920746f6f206c6f7760901b6044820152606401610a43565b6000610cbe600b5490565b60008181526009602052604090208690559050610cdb8185611a8d565b610ce58184610b61565b610cf3600b80546001019055565b949350505050565b6001600160a01b038516331480610d175750610d17853361092e565b610d335760405162461bcd60e51b8152600401610a43906134e0565b610d408585858585611ab8565b5050505050565b610d4f611836565b600560008281526009602052604090206004015460ff166006811115610d7757610d77613267565b14610dbb5760405162461bcd60e51b8152602060048201526014602482015273081cdd185d1d5cc8084f48199c9bdb4814dbdb1960621b6044820152606401610a43565b600081815260096020526040902060040180546006919060ff19166001835b021790555050565b610dea611836565b610df2611c65565b565b60608151835114610e595760405162461bcd60e51b815260206004820152602960248201527f455243313135353a206163636f756e747320616e6420696473206c656e677468604482015268040dad2e6dac2e8c6d60bb1b6064820152608401610a43565b600083516001600160401b03811115610e7457610e74612dde565b604051908082528060200260200182016040528015610e9d578160200160208202803683370190505b50905060005b8451811015610f1557610ee8858281518110610ec157610ec161352e565b6020026020010151858381518110610edb57610edb61352e565b60200260200101516109dc565b828281518110610efa57610efa61352e565b6020908102919091010152610f0e81613544565b9050610ea3565b509392505050565b610f25611836565b610f2e81611cb7565b50565b610f39611836565b6064816001600160601b03161115610f8e5760405162461bcd60e51b815260206004820152601860248201527763616e277420736574206d6f7265207468616e203130302560401b6044820152606401610a43565b6000610f9b826064613450565b9050610fa8848483611cc3565b50505050565b6001600160a01b038316331480610fca5750610fca833361092e565b610fe65760405162461bcd60e51b8152600401610a43906134e0565b610b12838383611d8e565b6000610ffc600b5490565b905090565b600a546001600160a01b0316331461102b5760405162461bcd60e51b8152600401610a439061347b565b600460008281526009602052604090206004015460ff16600681111561105357611053613267565b146110a05760405162461bcd60e51b815260206004820152601d60248201527f2073746174757320213d2066726f6d205265616479546f4265536f6c640000006044820152606401610a43565b600081815260096020526040902060040180546005919060ff1916600183610dda565b6110cb611836565b610df26000611f2d565b600a546001600160a01b031633146110ff5760405162461bcd60e51b8152600401610a439061347b565b600081815260086020526040902054600082815260096020526040902054146111605760405162461bcd60e51b81526020600482015260136024820152720103737ba1039b7b63237baba103cb2ba10109606d1b6044820152606401610a43565b610f2e81611f86565b611171611836565b610df26120b2565b611181611836565b600090815260076020526040812055565b61119a611836565b600160008281526009602052604090206004015460ff1660068111156111c2576111c2613267565b146112195760405162461bcd60e51b815260206004820152602160248201527f2073746174757320213d2066726f6d2057686974654c6973744d696e74696e676044820152600160fd1b6064820152608401610a43565b600081815260096020526040902060040180546002919060ff1916600183610dda565b600260008381526009602052604090206004015460ff16600681111561126457611264613267565b146112b15760405162461bcd60e51b815260206004820181905260248201527f73746174757320213d2066726f6d205075626c69634c6973744d696e74696e676044820152606401610a43565b610b7382826120ef565b610b73338383612204565b6112ce611836565b600a54600160a01b900460ff16156113395760405162461bcd60e51b815260206004820152602860248201527f676f757665726e616e636520416464726573732063616e20626520736574206f6044820152676e6c79206f6e636560c01b6064820152608401610a43565b600a80546001600160a81b0319166001600160a01b0390921691909117600160a01b179055565b611368611836565b610df26000600655565b600a546001600160a01b0316331461139c5760405162461bcd60e51b8152600401610a439061347b565b600360008281526009602052604090206004015460ff1660068111156113c4576113c4613267565b146114085760405162461bcd60e51b8152602060048201526014602482015273081cdd185d1d5cc8084f48199c9bdb48121bdb1960621b6044820152606401610a43565b60008181526009602052604090206004908101805460ff1916600183610dda565b611431611836565b6001600160a01b03166000908152600c60205260409020805460ff19169055565b336000908152600c602052604090205460ff166114b15760405162461bcd60e51b815260206004820152601760248201527f796f75207265206e6f7420696e2077686974656c6973740000000000000000006044820152606401610a43565b600160008381526009602052604090206004015460ff1660068111156114d9576114d9613267565b146112b15760405162461bcd60e51b815260206004820152601f60248201527f73746174757320213d2066726f6d2057686974654c6973744d696e74696e67006044820152606401610a43565b600a546001600160a01b031633146115505760405162461bcd60e51b8152600401610a439061347b565b600d805460ff1916911515919091179055565b61156b612c3e565b600960008381526020019081526020016000206040518060a0016040529081600082015481526020016001820154815260200160028201548152602001600382015481526020016004820160009054906101000a900460ff1660068111156115d5576115d5613267565b60068111156115e6576115e6613267565b90525092915050565b6115f7611836565b6001600160a01b03166000908152600c60205260409020805460ff19166001179055565b6001600160a01b0385163314806116375750611637853361092e565b6116535760405162461bcd60e51b8152600401610a43906134e0565b610d4085858585856122e4565b611668611836565b6001600160a01b0381166116cd5760405162461bcd60e51b815260206004820152602660248201527f4f776e61626c653a206e6577206f776e657220697320746865207a65726f206160448201526564647265737360d01b6064820152608401610a43565b610f2e81611f2d565b6001600160a01b0383163314806116f257506116f2833361092e565b61170e5760405162461bcd60e51b8152600401610a43906134e0565b610b12838383612420565b611721611836565b60008181526009602052604081206004015460ff16600681111561174757611747613267565b146117945760405162461bcd60e51b815260206004820152601960248201527f73746174757320213d2066726f6d2050726552656c65617365000000000000006044820152606401610a43565b6000818152600960205260409020546117ef5760405162461bcd60e51b815260206004820152601760248201527f6964206e6f7420696e697469616c697a656420796574200000000000000000006044820152606401610a43565b600081815260096020526040902060040180546001919060ff19168280610dda565b60006001600160e01b0319821663152a902d60e11b1480610a715750610a7182612541565b6000546001600160a01b03610100909104163314610df25760405162461bcd60e51b815260206004820181905260248201527f4f776e61626c653a2063616c6c6572206973206e6f7420746865206f776e65726044820152606401610a43565b6127106001600160601b03821611156118c15760405162461bcd60e51b8152600401610a439061355d565b6001600160a01b0382166119175760405162461bcd60e51b815260206004820152601960248201527f455243323938313a20696e76616c6964207265636569766572000000000000006044820152606401610a43565b604080518082019091526001600160a01b039092168083526001600160601b039091166020909201829052600160a01b90910217600655565b60008181526005602052604081208054606092919061196e906135a7565b80601f016020809104026020016040519081016040528092919081815260200182805461199a906135a7565b80156119e75780601f106119bc576101008083540402835291602001916119e7565b820191906000526020600020905b8154815290600101906020018083116119ca57829003601f168201915b505050505090506000815111611a0557611a0083612591565b611a29565b600481604051602001611a199291906135e1565b6040516020818303038152906040525b9392505050565b6000828152600560205260409020611a4882826136ae565b50817f6bb7ff708619ba0610cba295a58592e0451dee2622938c8755667688daf3529b611a7484610b17565b604051611a819190612d90565b60405180910390a25050565b611a9f81670de0b6b3a76400006134a7565b6000928352600960205260409092206001019190915550565b8151835114611ad95760405162461bcd60e51b8152600401610a439061376d565b6001600160a01b038416611aff5760405162461bcd60e51b8152600401610a43906137b5565b33611b0e818787878787612625565b60005b8451811015611bf7576000858281518110611b2e57611b2e61352e565b602002602001015190506000858381518110611b4c57611b4c61352e565b60209081029190910181015160008481526001835260408082206001600160a01b038e168352909352919091205490915081811015611b9d5760405162461bcd60e51b8152600401610a43906137fa565b60008381526001602090815260408083206001600160a01b038e8116855292528083208585039055908b16825281208054849290611bdc908490613844565b9250508190555050505080611bf090613544565b9050611b11565b50846001600160a01b0316866001600160a01b0316826001600160a01b03167f4a39dc06d4c0dbc64b70af90fd698a233a518aa5d07e595d983b8c0526c8f7fb8787604051611c47929190613857565b60405180910390a4611c5d8187878787876126b9565b505050505050565b611c6d612814565b6000805460ff191690557f5db9ee0a495bf2e6ff9c91a7834c1ba4fdd244a5e8aa4e537bd38aeae4b073aa335b6040516001600160a01b03909116815260200160405180910390a1565b6004610b7382826136ae565b6127106001600160601b0382161115611cee5760405162461bcd60e51b8152600401610a439061355d565b6001600160a01b038216611d445760405162461bcd60e51b815260206004820152601b60248201527f455243323938313a20496e76616c696420706172616d657465727300000000006044820152606401610a43565b6040805180820182526001600160a01b0393841681526001600160601b0392831660208083019182526000968752600790529190942093519051909116600160a01b029116179055565b6001600160a01b038316611db45760405162461bcd60e51b8152600401610a4390613885565b8051825114611dd55760405162461bcd60e51b8152600401610a439061376d565b6000339050611df881856000868660405180602001604052806000815250612625565b60005b8351811015611ec0576000848281518110611e1857611e1861352e565b602002602001015190506000848381518110611e3657611e3661352e565b60209081029190910181015160008481526001835260408082206001600160a01b038c168352909352919091205490915081811015611e875760405162461bcd60e51b8152600401610a43906138c8565b60009283526001602090815260408085206001600160a01b038b1686529091529092209103905580611eb881613544565b915050611dfb565b5060006001600160a01b0316846001600160a01b0316826001600160a01b03167f4a39dc06d4c0dbc64b70af90fd698a233a518aa5d07e595d983b8c0526c8f7fb8686604051611f11929190613857565b60405180910390a4604080516020810190915260009052610fa8565b600080546001600160a01b03838116610100818102610100600160a81b0319851617855560405193049190911692909183917f8be0079c531659141344cd1fd0a4f28419497f9722a3daafe3b4186f6b6457e091a35050565b600260008281526009602052604090206004015460ff166006811115611fae57611fae613267565b1480611fdf5750600160008281526009602052604090206004015460ff166006811115611fdd57611fdd613267565b145b8061200f5750600460008281526009602052604090206004015460ff16600681111561200d5761200d613267565b145b61208f5760405162461bcd60e51b8152602060048201526044602482018190527f20737461747573206e6f7420696e205b205075626c69634d696e74696e67202c908201527f2057686974654c6973744d696e74696e67202c205265616479546f4265536f6c606482015263032102e960e51b608482015260a401610a43565b600081815260096020526040902060040180546003919060ff1916600183610dda565b6120ba61285d565b6000805460ff191660011790557f62e78cea01bee320cd4e420270b5ea74000d11b0c9f74754ebdbfc544b05a258611c9a3390565b60008281526009602090815260408083205460089092528220546121139084613844565b11159050806121645760405162461bcd60e51b815260206004820152601d60248201527f6d696e7420616d6f756e742065786365656473206d6178537570706c790000006044820152606401610a43565b6000838152600960205260409020600101546121819083906134a7565b34146121bd5760405162461bcd60e51b815260206004820152600b60248201526a77726f6e672076616c756560a81b6044820152606401610a43565b6121d8338484604051806020016040528060008152506128a3565b60008381526009602052604090205460008481526008602052604090205403610b1257610b1283611f86565b816001600160a01b0316836001600160a01b0316036122775760405162461bcd60e51b815260206004820152602960248201527f455243313135353a2073657474696e6720617070726f76616c20737461747573604482015268103337b91039b2b63360b91b6064820152608401610a43565b6001600160a01b03838116600081815260026020908152604080832094871680845294825291829020805460ff191686151590811790915591519182527f17307eab39ab6107e8899845ad3d59bd9653f200f220920489ca2b5937696c31910160405180910390a3505050565b6001600160a01b03841661230a5760405162461bcd60e51b8152600401610a43906137b5565b336000612316856129bf565b90506000612323856129bf565b9050612333838989858589612625565b60008681526001602090815260408083206001600160a01b038c168452909152902054858110156123765760405162461bcd60e51b8152600401610a43906137fa565b60008781526001602090815260408083206001600160a01b038d8116855292528083208985039055908a168252812080548892906123b5908490613844565b909155505060408051888152602081018890526001600160a01b03808b16928c821692918816917fc3d58168c5ae7397731d063d5bbf3d657854427343f4c083240f7aacaa2d0f62910160405180910390a4612415848a8a8a8a8a612a0a565b505050505050505050565b6001600160a01b0383166124465760405162461bcd60e51b8152600401610a4390613885565b336000612452846129bf565b9050600061245f846129bf565b905061247f83876000858560405180602001604052806000815250612625565b60008581526001602090815260408083206001600160a01b038a168452909152902054848110156124c25760405162461bcd60e51b8152600401610a43906138c8565b60008681526001602090815260408083206001600160a01b038b81168086529184528285208a8703905582518b81529384018a90529092908816917fc3d58168c5ae7397731d063d5bbf3d657854427343f4c083240f7aacaa2d0f62910160405180910390a46040805160208101909152600090525b50505050505050565b60006001600160e01b03198216636cdb3d1360e11b148061257257506001600160e01b031982166303a24d0760e21b145b80610a7157506301ffc9a760e01b6001600160e01b0319831614610a71565b6060600380546125a0906135a7565b80601f01602080910402602001604051908101604052809291908181526020018280546125cc906135a7565b80156126195780601f106125ee57610100808354040283529160200191612619565b820191906000526020600020905b8154815290600101906020018083116125fc57829003601f168201915b50505050509050919050565b61262d61285d565b60005b83518110156126aa57600d5460ff16156126985760405162461bcd60e51b8152602060048201526024808201527f63616e74207472616e7366657220626f74746c6520696e20566f74696e6720736044820152637461746560e01b6064820152608401610a43565b806126a281613544565b915050612630565b50611c5d868686868686612ac5565b6001600160a01b0384163b15611c5d5760405163bc197c8160e01b81526001600160a01b0385169063bc197c81906126fd908990899088908890889060040161390c565b6020604051808303816000875af1925050508015612738575060408051601f3d908101601f191682019092526127359181019061396a565b60015b6127e457612744613987565b806308c379a00361277d57506127586139a3565b80612763575061277f565b8060405162461bcd60e51b8152600401610a439190612d90565b505b60405162461bcd60e51b815260206004820152603460248201527f455243313135353a207472616e7366657220746f206e6f6e2d455243313135356044820152732932b1b2b4bb32b91034b6b83632b6b2b73a32b960611b6064820152608401610a43565b6001600160e01b0319811663bc197c8160e01b146125385760405162461bcd60e51b8152600401610a4390613a2c565b60005460ff16610df25760405162461bcd60e51b815260206004820152601460248201527314185d5cd8589b194e881b9bdd081c185d5cd95960621b6044820152606401610a43565b60005460ff1615610df25760405162461bcd60e51b815260206004820152601060248201526f14185d5cd8589b194e881c185d5cd95960821b6044820152606401610a43565b6001600160a01b0384166129035760405162461bcd60e51b815260206004820152602160248201527f455243313135353a206d696e7420746f20746865207a65726f206164647265736044820152607360f81b6064820152608401610a43565b33600061290f856129bf565b9050600061291c856129bf565b905061292d83600089858589612625565b60008681526001602090815260408083206001600160a01b038b1684529091528120805487929061295f908490613844565b909155505060408051878152602081018790526001600160a01b03808a1692600092918716917fc3d58168c5ae7397731d063d5bbf3d657854427343f4c083240f7aacaa2d0f62910160405180910390a461253883600089898989612a0a565b604080516001808252818301909252606091600091906020808301908036833701905050905082816000815181106129f9576129f961352e565b602090810291909101015292915050565b6001600160a01b0384163b15611c5d5760405163f23a6e6160e01b81526001600160a01b0385169063f23a6e6190612a4e9089908990889088908890600401613a74565b6020604051808303816000875af1925050508015612a89575060408051601f3d908101601f19168201909252612a869181019061396a565b60015b612a9557612744613987565b6001600160e01b0319811663f23a6e6160e01b146125385760405162461bcd60e51b8152600401610a4390613a2c565b6001600160a01b038516612b4c5760005b8351811015612b4a57828181518110612af157612af161352e565b602002602001015160086000868481518110612b0f57612b0f61352e565b602002602001015181526020019081526020016000206000828254612b349190613844565b90915550612b43905081613544565b9050612ad6565b505b6001600160a01b038416611c5d5760005b8351811015612538576000848281518110612b7a57612b7a61352e565b602002602001015190506000848381518110612b9857612b9861352e565b6020026020010151905060006008600084815260200190815260200160002054905081811015612c1b5760405162461bcd60e51b815260206004820152602860248201527f455243313135353a206275726e20616d6f756e74206578636565647320746f74604482015267616c537570706c7960c01b6064820152608401610a43565b60009283526008602052604090922091039055612c3781613544565b9050612b5d565b6040518060a001604052806000815260200160008152602001600081526020016000815260200160006006811115612c7857612c78613267565b905290565b80356001600160a01b0381168114612c9457600080fd5b919050565b60008060408385031215612cac57600080fd5b612cb583612c7d565b946020939093013593505050565b6001600160e01b031981168114610f2e57600080fd5b600060208284031215612ceb57600080fd5b8135611a2981612cc3565b80356001600160601b0381168114612c9457600080fd5b60008060408385031215612d2057600080fd5b612d2983612c7d565b9150612d3760208401612cf6565b90509250929050565b60005b83811015612d5b578181015183820152602001612d43565b50506000910152565b60008151808452612d7c816020860160208601612d40565b601f01601f19169290920160200192915050565b602081526000611a296020830184612d64565b600060208284031215612db557600080fd5b5035919050565b60008060408385031215612dcf57600080fd5b50508035926020909101359150565b634e487b7160e01b600052604160045260246000fd5b601f8201601f191681016001600160401b0381118282101715612e1957612e19612dde565b6040525050565b600082601f830112612e3157600080fd5b81356001600160401b03811115612e4a57612e4a612dde565b604051612e61601f8301601f191660200182612df4565b818152846020838601011115612e7657600080fd5b816020850160208301376000918101602001919091529392505050565b60008060408385031215612ea657600080fd5b8235915060208301356001600160401b03811115612ec357600080fd5b612ecf85828601612e20565b9150509250929050565b600080600060608486031215612eee57600080fd5b833592506020840135915060408401356001600160401b03811115612f1257600080fd5b612f1e86828701612e20565b9150509250925092565b60006001600160401b03821115612f4157612f41612dde565b5060051b60200190565b600082601f830112612f5c57600080fd5b81356020612f6982612f28565b604051612f768282612df4565b83815260059390931b8501820192828101915086841115612f9657600080fd5b8286015b84811015612fb15780358352918301918301612f9a565b509695505050505050565b600080600080600060a08688031215612fd457600080fd5b612fdd86612c7d565b9450612feb60208701612c7d565b935060408601356001600160401b038082111561300757600080fd5b61301389838a01612f4b565b9450606088013591508082111561302957600080fd5b61303589838a01612f4b565b9350608088013591508082111561304b57600080fd5b5061305888828901612e20565b9150509295509295909350565b60006020828403121561307757600080fd5b611a2982612c7d565b6000806040838503121561309357600080fd5b82356001600160401b03808211156130aa57600080fd5b818501915085601f8301126130be57600080fd5b813560206130cb82612f28565b6040516130d88282612df4565b83815260059390931b85018201928281019150898411156130f857600080fd5b948201945b8386101561311d5761310e86612c7d565b825294820194908201906130fd565b9650508601359250508082111561313357600080fd5b50612ecf85828601612f4b565b600081518084526020808501945080840160005b8381101561317057815187529582019590820190600101613154565b509495945050505050565b602081526000611a296020830184613140565b6000602082840312156131a057600080fd5b81356001600160401b038111156131b657600080fd5b610cf384828501612e20565b6000806000606084860312156131d757600080fd5b833592506131e760208501612c7d565b91506131f560408501612cf6565b90509250925092565b60008060006060848603121561321357600080fd5b61321c84612c7d565b925060208401356001600160401b038082111561323857600080fd5b61324487838801612f4b565b9350604086013591508082111561325a57600080fd5b50612f1e86828701612f4b565b634e487b7160e01b600052602160045260246000fd5b6007811061329b57634e487b7160e01b600052602160045260246000fd5b9052565b60208101610a71828461327d565b80358015158114612c9457600080fd5b600080604083850312156132d057600080fd5b6132d983612c7d565b9150612d37602084016132ad565b6000602082840312156132f957600080fd5b611a29826132ad565b600060a08201905082518252602083015160208301526040830151604083015260608301516060830152608083015161333e608084018261327d565b5092915050565b600060a08201905086825285602083015284604083015283606083015261336f608083018461327d565b9695505050505050565b6000806040838503121561338c57600080fd5b61339583612c7d565b9150612d3760208401612c7d565b600080600080600060a086880312156133bb57600080fd5b6133c486612c7d565b94506133d260208701612c7d565b9350604086013592506060860135915060808601356001600160401b038111156133fb57600080fd5b61305888828901612e20565b60008060006060848603121561341c57600080fd5b61342584612c7d565b95602085013595506040909401359392505050565b634e487b7160e01b600052601160045260246000fd5b6001600160601b038181168382160280821691908281146134735761347361343a565b505092915050565b60208082526012908201527101027b7363c9023b7babb32b93730b731b2960751b604082015260600190565b8082028115828204841417610a7157610a7161343a565b6000826134db57634e487b7160e01b600052601260045260246000fd5b500490565b6020808252602e908201527f455243313135353a2063616c6c6572206973206e6f7420746f6b656e206f776e60408201526d195c881bdc88185c1c1c9bdd995960921b606082015260800190565b634e487b7160e01b600052603260045260246000fd5b6000600182016135565761355661343a565b5060010190565b6020808252602a908201527f455243323938313a20726f79616c7479206665652077696c6c206578636565646040820152692073616c65507269636560b01b606082015260800190565b600181811c908216806135bb57607f821691505b6020821081036135db57634e487b7160e01b600052602260045260246000fd5b50919050565b60008084546135ef816135a7565b60018281168015613607576001811461361c5761364b565b60ff198416875282151583028701945061364b565b8860005260208060002060005b858110156136425781548a820152908401908201613629565b50505082870194505b50505050835161365f818360208801612d40565b01949350505050565b601f821115610b1257600081815260208120601f850160051c8101602086101561368f5750805b601f850160051c820191505b81811015611c5d5782815560010161369b565b81516001600160401b038111156136c7576136c7612dde565b6136db816136d584546135a7565b84613668565b602080601f83116001811461371057600084156136f85750858301515b600019600386901b1c1916600185901b178555611c5d565b600085815260208120601f198616915b8281101561373f57888601518255948401946001909101908401613720565b508582101561375d5787850151600019600388901b60f8161c191681555b5050505050600190811b01905550565b60208082526028908201527f455243313135353a2069647320616e6420616d6f756e7473206c656e677468206040820152670dad2e6dac2e8c6d60c31b606082015260800190565b60208082526025908201527f455243313135353a207472616e7366657220746f20746865207a65726f206164604082015264647265737360d81b606082015260800190565b6020808252602a908201527f455243313135353a20696e73756666696369656e742062616c616e636520666f60408201526939103a3930b739b332b960b11b606082015260800190565b80820180821115610a7157610a7161343a565b60408152600061386a6040830185613140565b828103602084015261387c8185613140565b95945050505050565b60208082526023908201527f455243313135353a206275726e2066726f6d20746865207a65726f206164647260408201526265737360e81b606082015260800190565b60208082526024908201527f455243313135353a206275726e20616d6f756e7420657863656564732062616c604082015263616e636560e01b606082015260800190565b6001600160a01b0386811682528516602082015260a06040820181905260009061393890830186613140565b828103606084015261394a8186613140565b9050828103608084015261395e8185612d64565b98975050505050505050565b60006020828403121561397c57600080fd5b8151611a2981612cc3565b600060033d11156139a05760046000803e5060005160e01c5b90565b600060443d10156139b15790565b6040516003193d81016004833e81513d6001600160401b0381602484011181841117156139e057505050505090565b82850191508151818111156139f85750505050505090565b843d8701016020828501011115613a125750505050505090565b613a2160208286010187612df4565b509095945050505050565b60208082526028908201527f455243313135353a204552433131353552656365697665722072656a656374656040820152676420746f6b656e7360c01b606082015260800190565b6001600160a01b03868116825285166020820152604081018490526060810183905260a060808201819052600090613aae90830184612d64565b97965050505050505056fea26469706673582212205ab0e55b4f47adac553a52202d77e1cc6bd96b72177b9f857cbe46f55c3dde0164736f6c63430008110033",
  "immutableReferences": {},
  "source": "// SPDX-License-Identifier: MIT\npragma solidity 0.8.17;\n\nimport \"../node_modules/@openzeppelin/contracts/token/ERC1155/ERC1155.sol\";\nimport \"../node_modules/@openzeppelin/contracts/access/Ownable.sol\";\nimport \"../node_modules/@openzeppelin/contracts/security/Pausable.sol\";\nimport \"../node_modules/@openzeppelin/contracts/token/ERC1155/extensions/ERC1155Burnable.sol\";\nimport \"../node_modules/@openzeppelin/contracts/token/ERC1155/extensions/ERC1155Supply.sol\";\nimport \"../node_modules/@openzeppelin/contracts/token/ERC1155/extensions/ERC1155URIStorage.sol\";\nimport \"../node_modules/@openzeppelin/contracts/token/common/ERC2981.sol\";\nimport \"../node_modules/@openzeppelin/contracts/utils/Counters.sol\";\nimport \"./CommonEnums.sol\";\nimport \"./BottlesSupply.sol\";\n\ncontract BacchusVaultERC1155 is\n    Pausable,\n    ERC1155Burnable,\n    ERC1155URIStorage,\n    ERC2981,\n    ERC1155Supply,\n    BottlesSupply\n{\n    using Counters for Counters.Counter;\n    Counters.Counter private _currentId;\n    mapping(address => bool) private whitelist;\n\n    bool private votingState;\n\n    constructor() ERC1155(\"\") {\n        _setBaseURI(\"ipfs://\");\n    }\n\n    // :: ID ::\n    function getCurrentId() public view returns (uint256) {\n        return _currentId.current();\n    }\n\n    function setVoting(bool voting) external onlyGouvernance {\n        votingState = voting;\n    }\n\n    function getVoting() external view returns (bool) {\n        return votingState;\n    }\n\n    // :: WHITELIST ::\n    function isAddressInwhitelist(address _address)\n        external\n        view\n        returns (bool)\n    {\n        return whitelist[_address];\n    }\n\n    function addAddressTowhitelist(address _address) external onlyOwner {\n        whitelist[_address] = true;\n    }\n\n    function removeAddressTowhitelist(address _address) external onlyOwner {\n        whitelist[_address] = false;\n    }\n\n    // :: MINT ::\n    function initNewToken(\n        uint256 _maxSupply,\n        uint256 _mintPrice,\n        string memory _cid\n    ) external onlyOwner returns (uint256) {\n        require(_mintPrice > 0, \"mint price too low\");\n        require(_maxSupply > 0, \"supply too low\");\n        uint256 _id = _currentId.current();\n        _setMaxSupply(_id, _maxSupply);\n        _setMintPrice(_id, _mintPrice);\n        setTokenURI(_id, _cid);\n        _currentId.increment();\n        return _id;\n    }\n\n    function setBottleStatusToHold(uint256 _id) public onlyGouvernance {\n        require(getMaxSupply(_id) == totalSupply(_id), \" not soldout yet ! \");\n        _setBottleStatusToHold(_id);\n    }\n\n    function setBottleStatusToReadyToBeSold(uint256 _id)\n        external\n        onlyGouvernance\n    {\n        // this method can only be called from the gouvernance smart contract\n        require(\n            bottles[_id].bottleStatus == BottleStatus.Hold,\n            \" status != from Hold\"\n        );\n        bottles[_id].bottleStatus = BottleStatus.ReadyToBeSold;\n    }\n\n    function whiteListMint(uint256 _id, uint256 _amount) external payable {\n        require(whitelist[msg.sender], \"you re not in whitelist\");\n        require(\n            getBottleStatus(_id) == BottleStatus.WhiteListMinting,\n            \"status != from WhiteListMinting\"\n        );\n        _mint(_id, _amount);\n    }\n\n    function publicMint(uint256 _id, uint256 _amount) external payable {\n        require(\n            getBottleStatus(_id) == BottleStatus.PublicMinting,\n            \"status != from PublicListMinting\"\n        );\n        _mint(_id, _amount);\n    }\n\n    function _mint(uint256 _id, uint256 _amount) internal {\n        bool isMintable = _amount + totalSupply(_id) <= getMaxSupply(_id);\n        require(isMintable, \"mint amount exceeds maxSupply\");\n        require(msg.value == getMintPrice(_id) * _amount, \"wrong value\");\n        _mint(msg.sender, _id, _amount, \"\");\n        if (totalSupply(_id) == getMaxSupply(_id)) {\n            _setBottleStatusToHold(_id);\n        }\n    }\n\n    // :: URI ::\n    function uri(uint256 tokenId)\n        public\n        view\n        virtual\n        override(ERC1155, ERC1155URIStorage)\n        returns (string memory)\n    {\n        return super.uri(tokenId);\n    }\n\n    function setBaseURI(string memory _baseURI) external onlyOwner {\n        _setBaseURI(_baseURI);\n    }\n\n    function setTokenURI(uint256 _tokenId, string memory _cid)\n        public\n        onlyOwner\n    {\n        _setURI(_tokenId, _cid);\n    }\n\n    // :: NAME ::\n    function name() public pure returns (string memory) {\n        string memory collection = \"Bacchus Vault\";\n        return collection;\n    }\n\n    // :: ROYALTIES ::\n    function setDefaultRoyalty(address _receiver, uint96 _percentage)\n        external\n        onlyOwner\n    {\n        require(_percentage <= 100, \"can't set more than 100%\");\n        uint96 feeNumerator = _percentage * 100;\n        _setDefaultRoyalty(_receiver, feeNumerator);\n    }\n\n    function setTokenRoyalty(\n        uint256 _tokenId,\n        address _receiver,\n        uint96 _percentage\n    ) external onlyOwner {\n        require(_percentage <= 100, \"can't set more than 100%\");\n        uint96 feeNumerator = _percentage * 100;\n        _setTokenRoyalty(_tokenId, _receiver, feeNumerator);\n    }\n\n    function deleteDefaultRoyalty() external onlyOwner {\n        _deleteDefaultRoyalty();\n    }\n\n    function resetTokenRoyalty(uint256 _tokenId) external onlyOwner {\n        _resetTokenRoyalty(_tokenId);\n    }\n\n    // :: PAUSE ::\n    function pause() public onlyOwner {\n        _pause();\n    }\n\n    function unpause() public onlyOwner {\n        _unpause();\n    }\n\n    // :: INTERNAL ::\n    function _beforeTokenTransfer(\n        address operator,\n        address from,\n        address to,\n        uint256[] memory ids,\n        uint256[] memory amounts,\n        bytes memory data\n    ) internal override(ERC1155Supply, ERC1155) whenNotPaused {\n        for (uint256 i; i < ids.length; i++) {\n            require(!votingState, \"cant transfer bottle in Voting state\");\n        }\n        super._beforeTokenTransfer(operator, from, to, ids, amounts, data);\n    }\n\n    // EIP2981 standard Interface return. Adds to ERC1155 and ERC165 Interface returns.\n    function supportsInterface(bytes4 interfaceId)\n        public\n        view\n        virtual\n        override(ERC1155, ERC2981)\n        returns (bool)\n    {\n        return (interfaceId == type(IERC2981).interfaceId ||\n            super.supportsInterface(interfaceId));\n    }\n\n}\n",
  "sourcePath": "/home/tehjul/dev/CoursAlyra/BacchusVault/truffle/contracts/BacchusVaultERC1155.sol",
  "compiler": {
    "name": "solc",
    "version": "0.8.17+commit.8df45f5f.Emscripten.clang"
  },
  "schemaVersion": "3.4.10",
  "updatedAt": "2022-12-11T22:38:23.837Z",
  "networkType": "ethereum",
  "devdoc": {
    "kind": "dev",
    "methods": {
      "balanceOf(address,uint256)": {
        "details": "See {IERC1155-balanceOf}. Requirements: - `account` cannot be the zero address."
      },
      "balanceOfBatch(address[],uint256[])": {
        "details": "See {IERC1155-balanceOfBatch}. Requirements: - `accounts` and `ids` must have the same length."
      },
      "exists(uint256)": {
        "details": "Indicates whether any token exist with a given id, or not."
      },
      "isApprovedForAll(address,address)": {
        "details": "See {IERC1155-isApprovedForAll}."
      },
      "owner()": {
        "details": "Returns the address of the current owner."
      },
      "paused()": {
        "details": "Returns true if the contract is paused, and false otherwise."
      },
      "renounceOwnership()": {
        "details": "Leaves the contract without owner. It will not be possible to call `onlyOwner` functions anymore. Can only be called by the current owner. NOTE: Renouncing ownership will leave the contract without an owner, thereby removing any functionality that is only available to the owner."
      },
      "royaltyInfo(uint256,uint256)": {
        "details": "Returns how much royalty is owed and to whom, based on a sale price that may be denominated in any unit of exchange. The royalty amount is denominated and should be paid in that same unit of exchange."
      },
      "safeBatchTransferFrom(address,address,uint256[],uint256[],bytes)": {
        "details": "See {IERC1155-safeBatchTransferFrom}."
      },
      "safeTransferFrom(address,address,uint256,uint256,bytes)": {
        "details": "See {IERC1155-safeTransferFrom}."
      },
      "setApprovalForAll(address,bool)": {
        "details": "See {IERC1155-setApprovalForAll}."
      },
      "totalSupply(uint256)": {
        "details": "Total amount of tokens in with a given id."
      },
      "transferOwnership(address)": {
        "details": "Transfers ownership of the contract to a new account (`newOwner`). Can only be called by the current owner."
      }
    },
    "version": 1
  },
  "userdoc": {
    "kind": "user",
    "methods": {},
    "version": 1
  }
}