{
  "contractName": "BacchusVault",
  "abi": [
    {
      "inputs": [],
      "stateMutability": "nonpayable",
      "type": "constructor"
    },
    {
      "anonymous": false,
      "inputs": [
        {
          "indexed": true,
          "internalType": "address",
          "name": "account",
          "type": "address"
        },
        {
          "indexed": true,
          "internalType": "address",
          "name": "operator",
          "type": "address"
        },
        {
          "indexed": false,
          "internalType": "bool",
          "name": "approved",
          "type": "bool"
        }
      ],
      "name": "ApprovalForAll",
      "type": "event"
    },
    {
      "anonymous": false,
      "inputs": [
        {
          "indexed": true,
          "internalType": "address",
          "name": "previousOwner",
          "type": "address"
        },
        {
          "indexed": true,
          "internalType": "address",
          "name": "newOwner",
          "type": "address"
        }
      ],
      "name": "OwnershipTransferred",
      "type": "event"
    },
    {
      "anonymous": false,
      "inputs": [
        {
          "indexed": false,
          "internalType": "address",
          "name": "account",
          "type": "address"
        }
      ],
      "name": "Paused",
      "type": "event"
    },
    {
      "anonymous": false,
      "inputs": [
        {
          "indexed": true,
          "internalType": "address",
          "name": "operator",
          "type": "address"
        },
        {
          "indexed": true,
          "internalType": "address",
          "name": "from",
          "type": "address"
        },
        {
          "indexed": true,
          "internalType": "address",
          "name": "to",
          "type": "address"
        },
        {
          "indexed": false,
          "internalType": "uint256[]",
          "name": "ids",
          "type": "uint256[]"
        },
        {
          "indexed": false,
          "internalType": "uint256[]",
          "name": "values",
          "type": "uint256[]"
        }
      ],
      "name": "TransferBatch",
      "type": "event"
    },
    {
      "anonymous": false,
      "inputs": [
        {
          "indexed": true,
          "internalType": "address",
          "name": "operator",
          "type": "address"
        },
        {
          "indexed": true,
          "internalType": "address",
          "name": "from",
          "type": "address"
        },
        {
          "indexed": true,
          "internalType": "address",
          "name": "to",
          "type": "address"
        },
        {
          "indexed": false,
          "internalType": "uint256",
          "name": "id",
          "type": "uint256"
        },
        {
          "indexed": false,
          "internalType": "uint256",
          "name": "value",
          "type": "uint256"
        }
      ],
      "name": "TransferSingle",
      "type": "event"
    },
    {
      "anonymous": false,
      "inputs": [
        {
          "indexed": false,
          "internalType": "string",
          "name": "value",
          "type": "string"
        },
        {
          "indexed": true,
          "internalType": "uint256",
          "name": "id",
          "type": "uint256"
        }
      ],
      "name": "URI",
      "type": "event"
    },
    {
      "anonymous": false,
      "inputs": [
        {
          "indexed": false,
          "internalType": "address",
          "name": "account",
          "type": "address"
        }
      ],
      "name": "Unpaused",
      "type": "event"
    },
    {
      "inputs": [
        {
          "internalType": "address",
          "name": "account",
          "type": "address"
        },
        {
          "internalType": "uint256",
          "name": "id",
          "type": "uint256"
        }
      ],
      "name": "balanceOf",
      "outputs": [
        {
          "internalType": "uint256",
          "name": "",
          "type": "uint256"
        }
      ],
      "stateMutability": "view",
      "type": "function",
      "constant": true
    },
    {
      "inputs": [
        {
          "internalType": "address[]",
          "name": "accounts",
          "type": "address[]"
        },
        {
          "internalType": "uint256[]",
          "name": "ids",
          "type": "uint256[]"
        }
      ],
      "name": "balanceOfBatch",
      "outputs": [
        {
          "internalType": "uint256[]",
          "name": "",
          "type": "uint256[]"
        }
      ],
      "stateMutability": "view",
      "type": "function",
      "constant": true
    },
    {
      "inputs": [
        {
          "internalType": "address",
          "name": "account",
          "type": "address"
        },
        {
          "internalType": "uint256",
          "name": "id",
          "type": "uint256"
        },
        {
          "internalType": "uint256",
          "name": "value",
          "type": "uint256"
        }
      ],
      "name": "burn",
      "outputs": [],
      "stateMutability": "nonpayable",
      "type": "function"
    },
    {
      "inputs": [
        {
          "internalType": "address",
          "name": "account",
          "type": "address"
        },
        {
          "internalType": "uint256[]",
          "name": "ids",
          "type": "uint256[]"
        },
        {
          "internalType": "uint256[]",
          "name": "values",
          "type": "uint256[]"
        }
      ],
      "name": "burnBatch",
      "outputs": [],
      "stateMutability": "nonpayable",
      "type": "function"
    },
    {
      "inputs": [
        {
          "internalType": "uint256",
          "name": "id",
          "type": "uint256"
        }
      ],
      "name": "exists",
      "outputs": [
        {
          "internalType": "bool",
          "name": "",
          "type": "bool"
        }
      ],
      "stateMutability": "view",
      "type": "function",
      "constant": true
    },
    {
      "inputs": [
        {
          "internalType": "address",
          "name": "account",
          "type": "address"
        },
        {
          "internalType": "address",
          "name": "operator",
          "type": "address"
        }
      ],
      "name": "isApprovedForAll",
      "outputs": [
        {
          "internalType": "bool",
          "name": "",
          "type": "bool"
        }
      ],
      "stateMutability": "view",
      "type": "function",
      "constant": true
    },
    {
      "inputs": [],
      "name": "owner",
      "outputs": [
        {
          "internalType": "address",
          "name": "",
          "type": "address"
        }
      ],
      "stateMutability": "view",
      "type": "function",
      "constant": true
    },
    {
      "inputs": [],
      "name": "paused",
      "outputs": [
        {
          "internalType": "bool",
          "name": "",
          "type": "bool"
        }
      ],
      "stateMutability": "view",
      "type": "function",
      "constant": true
    },
    {
      "inputs": [],
      "name": "renounceOwnership",
      "outputs": [],
      "stateMutability": "nonpayable",
      "type": "function"
    },
    {
      "inputs": [
        {
          "internalType": "address",
          "name": "from",
          "type": "address"
        },
        {
          "internalType": "address",
          "name": "to",
          "type": "address"
        },
        {
          "internalType": "uint256[]",
          "name": "ids",
          "type": "uint256[]"
        },
        {
          "internalType": "uint256[]",
          "name": "amounts",
          "type": "uint256[]"
        },
        {
          "internalType": "bytes",
          "name": "data",
          "type": "bytes"
        }
      ],
      "name": "safeBatchTransferFrom",
      "outputs": [],
      "stateMutability": "nonpayable",
      "type": "function"
    },
    {
      "inputs": [
        {
          "internalType": "address",
          "name": "from",
          "type": "address"
        },
        {
          "internalType": "address",
          "name": "to",
          "type": "address"
        },
        {
          "internalType": "uint256",
          "name": "id",
          "type": "uint256"
        },
        {
          "internalType": "uint256",
          "name": "amount",
          "type": "uint256"
        },
        {
          "internalType": "bytes",
          "name": "data",
          "type": "bytes"
        }
      ],
      "name": "safeTransferFrom",
      "outputs": [],
      "stateMutability": "nonpayable",
      "type": "function"
    },
    {
      "inputs": [
        {
          "internalType": "address",
          "name": "operator",
          "type": "address"
        },
        {
          "internalType": "bool",
          "name": "approved",
          "type": "bool"
        }
      ],
      "name": "setApprovalForAll",
      "outputs": [],
      "stateMutability": "nonpayable",
      "type": "function"
    },
    {
      "inputs": [
        {
          "internalType": "bytes4",
          "name": "interfaceId",
          "type": "bytes4"
        }
      ],
      "name": "supportsInterface",
      "outputs": [
        {
          "internalType": "bool",
          "name": "",
          "type": "bool"
        }
      ],
      "stateMutability": "view",
      "type": "function",
      "constant": true
    },
    {
      "inputs": [
        {
          "internalType": "uint256",
          "name": "id",
          "type": "uint256"
        }
      ],
      "name": "totalSupply",
      "outputs": [
        {
          "internalType": "uint256",
          "name": "",
          "type": "uint256"
        }
      ],
      "stateMutability": "view",
      "type": "function",
      "constant": true
    },
    {
      "inputs": [
        {
          "internalType": "address",
          "name": "newOwner",
          "type": "address"
        }
      ],
      "name": "transferOwnership",
      "outputs": [],
      "stateMutability": "nonpayable",
      "type": "function"
    },
    {
      "inputs": [
        {
          "internalType": "uint256",
          "name": "",
          "type": "uint256"
        }
      ],
      "name": "uri",
      "outputs": [
        {
          "internalType": "string",
          "name": "",
          "type": "string"
        }
      ],
      "stateMutability": "view",
      "type": "function",
      "constant": true
    },
    {
      "inputs": [],
      "name": "getCurrentId",
      "outputs": [
        {
          "internalType": "uint256",
          "name": "",
          "type": "uint256"
        }
      ],
      "stateMutability": "view",
      "type": "function",
      "constant": true
    },
    {
      "inputs": [
        {
          "internalType": "uint256",
          "name": "_id",
          "type": "uint256"
        }
      ],
      "name": "getMaxSupply",
      "outputs": [
        {
          "internalType": "uint256",
          "name": "",
          "type": "uint256"
        }
      ],
      "stateMutability": "view",
      "type": "function",
      "constant": true
    },
    {
      "inputs": [
        {
          "internalType": "uint256",
          "name": "_id",
          "type": "uint256"
        }
      ],
      "name": "getMintPrice",
      "outputs": [
        {
          "internalType": "uint256",
          "name": "",
          "type": "uint256"
        }
      ],
      "stateMutability": "view",
      "type": "function",
      "constant": true
    },
    {
      "inputs": [
        {
          "internalType": "uint256",
          "name": "_id",
          "type": "uint256"
        },
        {
          "internalType": "uint256",
          "name": "_price",
          "type": "uint256"
        }
      ],
      "name": "setMintPrice",
      "outputs": [],
      "stateMutability": "nonpayable",
      "type": "function"
    },
    {
      "inputs": [
        {
          "internalType": "uint256",
          "name": "_amount",
          "type": "uint256"
        },
        {
          "internalType": "uint256",
          "name": "_maxSupply",
          "type": "uint256"
        }
      ],
      "name": "mintNew",
      "outputs": [],
      "stateMutability": "nonpayable",
      "type": "function"
    },
    {
      "inputs": [
        {
          "internalType": "uint256",
          "name": "_id",
          "type": "uint256"
        },
        {
          "internalType": "uint256",
          "name": "_amount",
          "type": "uint256"
        }
      ],
      "name": "mintId",
      "outputs": [],
      "stateMutability": "payable",
      "type": "function",
      "payable": true
    },
    {
      "inputs": [
        {
          "internalType": "string",
          "name": "_newURI",
          "type": "string"
        }
      ],
      "name": "setNewURI",
      "outputs": [],
      "stateMutability": "nonpayable",
      "type": "function"
    },
    {
      "inputs": [
        {
          "internalType": "uint256",
          "name": "_id",
          "type": "uint256"
        }
      ],
      "name": "burnThemAll",
      "outputs": [],
      "stateMutability": "nonpayable",
      "type": "function"
    },
    {
      "inputs": [],
      "name": "pause",
      "outputs": [],
      "stateMutability": "nonpayable",
      "type": "function"
    },
    {
      "inputs": [],
      "name": "unpause",
      "outputs": [],
      "stateMutability": "nonpayable",
      "type": "function"
    }
  ],
  "bytecode": "0x60806040523480156200001157600080fd5b506040518060200160405280600081525062000033816200007560201b60201c565b5062000054620000486200008a60201b60201c565b6200009260201b60201c565b6000600360146101000a81548160ff021916908315150217905550620004b9565b8060029081620000869190620003d2565b5050565b600033905090565b6000600360009054906101000a900473ffffffffffffffffffffffffffffffffffffffff16905081600360006101000a81548173ffffffffffffffffffffffffffffffffffffffff021916908373ffffffffffffffffffffffffffffffffffffffff1602179055508173ffffffffffffffffffffffffffffffffffffffff168173ffffffffffffffffffffffffffffffffffffffff167f8be0079c531659141344cd1fd0a4f28419497f9722a3daafe3b4186f6b6457e060405160405180910390a35050565b600081519050919050565b7f4e487b7100000000000000000000000000000000000000000000000000000000600052604160045260246000fd5b7f4e487b7100000000000000000000000000000000000000000000000000000000600052602260045260246000fd5b60006002820490506001821680620001da57607f821691505b602082108103620001f057620001ef62000192565b5b50919050565b60008190508160005260206000209050919050565b60006020601f8301049050919050565b600082821b905092915050565b6000600883026200025a7fffffffffffffffffffffffffffffffffffffffffffffffffffffffffffffffff826200021b565b6200026686836200021b565b95508019841693508086168417925050509392505050565b6000819050919050565b6000819050919050565b6000620002b3620002ad620002a7846200027e565b62000288565b6200027e565b9050919050565b6000819050919050565b620002cf8362000292565b620002e7620002de82620002ba565b84845462000228565b825550505050565b600090565b620002fe620002ef565b6200030b818484620002c4565b505050565b5b81811015620003335762000327600082620002f4565b60018101905062000311565b5050565b601f82111562000382576200034c81620001f6565b62000357846200020b565b8101602085101562000367578190505b6200037f62000376856200020b565b83018262000310565b50505b505050565b600082821c905092915050565b6000620003a76000198460080262000387565b1980831691505092915050565b6000620003c2838362000394565b9150826002028217905092915050565b620003dd8262000158565b67ffffffffffffffff811115620003f957620003f862000163565b5b620004058254620001c1565b6200041282828562000337565b600060209050601f8311600181146200044a576000841562000435578287015190505b620004418582620003b4565b865550620004b1565b601f1984166200045a86620001f6565b60005b8281101562000484578489015182556001820191506020850194506020810190506200045d565b86831015620004a45784890151620004a0601f89168262000394565b8355505b6001600288020188555050505b505050505050565b6143fb80620004c96000396000f3fe6080604052600436106101805760003560e01c80636b20c454116100d1578063a22cb4651161008a578063e985e9c511610064578063e985e9c51461056e578063f242432a146105ab578063f2fde38b146105d4578063f5298aca146105fd57610180565b8063a22cb465146104df578063b3234b6b14610508578063bd85b0391461053157610180565b80636b20c454146104095780636c14386214610432578063715018a61461045d5780637f3eda13146104745780638456cb591461049d5780638da5cb5b146104b457610180565b80633f4ba83a1161013e578063559e775b11610118578063559e775b146103485780635c975abb146103855780635e495d74146103b05780636611a8d4146103ed57610180565b80633f4ba83a146102b75780634e1273f4146102ce5780634f558e791461030b57610180565b8062fdd58e1461018557806301ffc9a7146101c25780630442bfa8146101ff5780630e709b1b146102285780630e89341c146102515780632eb2c2d61461028e575b600080fd5b34801561019157600080fd5b506101ac60048036038101906101a79190612842565b610626565b6040516101b99190612891565b60405180910390f35b3480156101ce57600080fd5b506101e960048036038101906101e49190612904565b6106ee565b6040516101f6919061294c565b60405180910390f35b34801561020b57600080fd5b5061022660048036038101906102219190612967565b6107d0565b005b34801561023457600080fd5b5061024f600480360381019061024a9190612aed565b6107ff565b005b34801561025d57600080fd5b5061027860048036038101906102739190612b36565b610813565b6040516102859190612be2565b60405180910390f35b34801561029a57600080fd5b506102b560048036038101906102b09190612d6d565b6108a7565b005b3480156102c357600080fd5b506102cc610948565b005b3480156102da57600080fd5b506102f560048036038101906102f09190612eff565b61095a565b6040516103029190613035565b60405180910390f35b34801561031757600080fd5b50610332600480360381019061032d9190612b36565b610a73565b60405161033f919061294c565b60405180910390f35b34801561035457600080fd5b5061036f600480360381019061036a9190612b36565b610a87565b60405161037c9190612891565b60405180910390f35b34801561039157600080fd5b5061039a610aa4565b6040516103a7919061294c565b60405180910390f35b3480156103bc57600080fd5b506103d760048036038101906103d29190612b36565b610abb565b6040516103e49190612891565b60405180910390f35b61040760048036038101906104029190612967565b610ad8565b005b34801561041557600080fd5b50610430600480360381019061042b9190613057565b610c0e565b005b34801561043e57600080fd5b50610447610cab565b6040516104549190612891565b60405180910390f35b34801561046957600080fd5b50610472610cbc565b005b34801561048057600080fd5b5061049b60048036038101906104969190612967565b610cd0565b005b3480156104a957600080fd5b506104b2610d2b565b005b3480156104c057600080fd5b506104c9610d3d565b6040516104d691906130f1565b60405180910390f35b3480156104eb57600080fd5b5061050660048036038101906105019190613138565b610d67565b005b34801561051457600080fd5b5061052f600480360381019061052a9190612b36565b610d7d565b005b34801561053d57600080fd5b5061055860048036038101906105539190612b36565b610d9b565b6040516105659190612891565b60405180910390f35b34801561057a57600080fd5b5061059560048036038101906105909190613178565b610db8565b6040516105a2919061294c565b60405180910390f35b3480156105b757600080fd5b506105d260048036038101906105cd91906131b8565b610e4c565b005b3480156105e057600080fd5b506105fb60048036038101906105f6919061324f565b610eed565b005b34801561060957600080fd5b50610624600480360381019061061f919061327c565b610f70565b005b60008073ffffffffffffffffffffffffffffffffffffffff168373ffffffffffffffffffffffffffffffffffffffff1603610696576040517f08c379a000000000000000000000000000000000000000000000000000000000815260040161068d90613341565b60405180910390fd5b60008083815260200190815260200160002060008473ffffffffffffffffffffffffffffffffffffffff1673ffffffffffffffffffffffffffffffffffffffff16815260200190815260200160002054905092915050565b60007fd9b67a26000000000000000000000000000000000000000000000000000000007bffffffffffffffffffffffffffffffffffffffffffffffffffffffff1916827bffffffffffffffffffffffffffffffffffffffffffffffffffffffff191614806107b957507f0e89341c000000000000000000000000000000000000000000000000000000007bffffffffffffffffffffffffffffffffffffffffffffffffffffffff1916827bffffffffffffffffffffffffffffffffffffffffffffffffffffffff1916145b806107c957506107c88261100d565b5b9050919050565b670de0b6b3a7640000816107e49190613390565b60076000848152602001908152602001600020819055505050565b610807611077565b610810816110f5565b50565b60606002805461082290613401565b80601f016020809104026020016040519081016040528092919081815260200182805461084e90613401565b801561089b5780601f106108705761010080835404028352916020019161089b565b820191906000526020600020905b81548152906001019060200180831161087e57829003601f168201915b50505050509050919050565b6108af611108565b73ffffffffffffffffffffffffffffffffffffffff168573ffffffffffffffffffffffffffffffffffffffff1614806108f557506108f4856108ef611108565b610db8565b5b610934576040517f08c379a000000000000000000000000000000000000000000000000000000000815260040161092b906134a4565b60405180910390fd5b6109418585858585611110565b5050505050565b610950611077565b610958611431565b565b606081518351146109a0576040517f08c379a000000000000000000000000000000000000000000000000000000000815260040161099790613536565b60405180910390fd5b6000835167ffffffffffffffff8111156109bd576109bc6129c2565b5b6040519080825280602002602001820160405280156109eb5781602001602082028036833780820191505090505b50905060005b8451811015610a6857610a38858281518110610a1057610a0f613556565b5b6020026020010151858381518110610a2b57610a2a613556565b5b6020026020010151610626565b828281518110610a4b57610a4a613556565b5b60200260200101818152505080610a6190613585565b90506109f1565b508091505092915050565b600080610a7f83610d9b565b119050919050565b600060076000838152602001908152602001600020549050919050565b6000600360149054906101000a900460ff16905090565b600060066000838152602001908152602001600020549050919050565b610ae182610a73565b610b20576040517f08c379a0000000000000000000000000000000000000000000000000000000008152600401610b1790613619565b60405180910390fd5b806007600084815260200190815260200160002054610b3f9190613390565b3414610b80576040517f08c379a0000000000000000000000000000000000000000000000000000000008152600401610b7790613685565b60405180910390fd5b60006006600084815260200190815260200160002054610b9f84610d9b565b83610baa91906136a5565b1115905080610bee576040517f08c379a0000000000000000000000000000000000000000000000000000000008152600401610be590613725565b60405180910390fd5b610c0933848460405180602001604052806000815250611494565b505050565b610c16611108565b73ffffffffffffffffffffffffffffffffffffffff168373ffffffffffffffffffffffffffffffffffffffff161480610c5c5750610c5b83610c56611108565b610db8565b5b610c9b576040517f08c379a0000000000000000000000000000000000000000000000000000000008152600401610c92906134a4565b60405180910390fd5b610ca68383836114a6565b505050565b6000610cb76005611774565b905090565b610cc4611077565b610cce6000611782565b565b610cd8611077565b8060066000610ce76005611774565b815260200190815260200160002081905550610d1d33610d076005611774565b8460405180602001604052806000815250611494565b610d276005611848565b5050565b610d33611077565b610d3b61185e565b565b6000600360009054906101000a900473ffffffffffffffffffffffffffffffffffffffff16905090565b610d79610d72611108565b83836118c1565b5050565b610d85611077565b610d983382610d9384610d9b565b611a2d565b50565b600060046000838152602001908152602001600020549050919050565b6000600160008473ffffffffffffffffffffffffffffffffffffffff1673ffffffffffffffffffffffffffffffffffffffff16815260200190815260200160002060008373ffffffffffffffffffffffffffffffffffffffff1673ffffffffffffffffffffffffffffffffffffffff16815260200190815260200160002060009054906101000a900460ff16905092915050565b610e54611108565b73ffffffffffffffffffffffffffffffffffffffff168573ffffffffffffffffffffffffffffffffffffffff161480610e9a5750610e9985610e94611108565b610db8565b5b610ed9576040517f08c379a0000000000000000000000000000000000000000000000000000000008152600401610ed0906134a4565b60405180910390fd5b610ee68585858585611c73565b5050505050565b610ef5611077565b600073ffffffffffffffffffffffffffffffffffffffff168173ffffffffffffffffffffffffffffffffffffffff1603610f64576040517f08c379a0000000000000000000000000000000000000000000000000000000008152600401610f5b906137b7565b60405180910390fd5b610f6d81611782565b50565b610f78611108565b73ffffffffffffffffffffffffffffffffffffffff168373ffffffffffffffffffffffffffffffffffffffff161480610fbe5750610fbd83610fb8611108565b610db8565b5b610ffd576040517f08c379a0000000000000000000000000000000000000000000000000000000008152600401610ff4906134a4565b60405180910390fd5b611008838383611a2d565b505050565b60007f01ffc9a7000000000000000000000000000000000000000000000000000000007bffffffffffffffffffffffffffffffffffffffffffffffffffffffff1916827bffffffffffffffffffffffffffffffffffffffffffffffffffffffff1916149050919050565b61107f611108565b73ffffffffffffffffffffffffffffffffffffffff1661109d610d3d565b73ffffffffffffffffffffffffffffffffffffffff16146110f3576040517f08c379a00000000000000000000000000000000000000000000000000000000081526004016110ea90613823565b60405180910390fd5b565b806002908161110491906139ef565b5050565b600033905090565b8151835114611154576040517f08c379a000000000000000000000000000000000000000000000000000000000815260040161114b90613b33565b60405180910390fd5b600073ffffffffffffffffffffffffffffffffffffffff168473ffffffffffffffffffffffffffffffffffffffff16036111c3576040517f08c379a00000000000000000000000000000000000000000000000000000000081526004016111ba90613bc5565b60405180910390fd5b60006111cd611108565b90506111dd818787878787611f0e565b60005b845181101561138e5760008582815181106111fe576111fd613556565b5b60200260200101519050600085838151811061121d5761121c613556565b5b60200260200101519050600080600084815260200190815260200160002060008b73ffffffffffffffffffffffffffffffffffffffff1673ffffffffffffffffffffffffffffffffffffffff168152602001908152602001600020549050818110156112be576040517f08c379a00000000000000000000000000000000000000000000000000000000081526004016112b590613c57565b60405180910390fd5b81810360008085815260200190815260200160002060008c73ffffffffffffffffffffffffffffffffffffffff1673ffffffffffffffffffffffffffffffffffffffff168152602001908152602001600020819055508160008085815260200190815260200160002060008b73ffffffffffffffffffffffffffffffffffffffff1673ffffffffffffffffffffffffffffffffffffffff168152602001908152602001600020600082825461137391906136a5565b925050819055505050508061138790613585565b90506111e0565b508473ffffffffffffffffffffffffffffffffffffffff168673ffffffffffffffffffffffffffffffffffffffff168273ffffffffffffffffffffffffffffffffffffffff167f4a39dc06d4c0dbc64b70af90fd698a233a518aa5d07e595d983b8c0526c8f7fb8787604051611405929190613c77565b60405180910390a461141b818787878787611f2c565b611429818787878787611f34565b505050505050565b61143961210b565b6000600360146101000a81548160ff0219169083151502179055507f5db9ee0a495bf2e6ff9c91a7834c1ba4fdd244a5e8aa4e537bd38aeae4b073aa61147d611108565b60405161148a91906130f1565b60405180910390a1565b6114a084848484612154565b50505050565b600073ffffffffffffffffffffffffffffffffffffffff168373ffffffffffffffffffffffffffffffffffffffff1603611515576040517f08c379a000000000000000000000000000000000000000000000000000000000815260040161150c90613d20565b60405180910390fd5b8051825114611559576040517f08c379a000000000000000000000000000000000000000000000000000000000815260040161155090613b33565b60405180910390fd5b6000611563611108565b905061158381856000868660405180602001604052806000815250611f0e565b60005b83518110156116d05760008482815181106115a4576115a3613556565b5b6020026020010151905060008483815181106115c3576115c2613556565b5b60200260200101519050600080600084815260200190815260200160002060008973ffffffffffffffffffffffffffffffffffffffff1673ffffffffffffffffffffffffffffffffffffffff16815260200190815260200160002054905081811015611664576040517f08c379a000000000000000000000000000000000000000000000000000000000815260040161165b90613db2565b60405180910390fd5b81810360008085815260200190815260200160002060008a73ffffffffffffffffffffffffffffffffffffffff1673ffffffffffffffffffffffffffffffffffffffff1681526020019081526020016000208190555050505080806116c890613585565b915050611586565b50600073ffffffffffffffffffffffffffffffffffffffff168473ffffffffffffffffffffffffffffffffffffffff168273ffffffffffffffffffffffffffffffffffffffff167f4a39dc06d4c0dbc64b70af90fd698a233a518aa5d07e595d983b8c0526c8f7fb8686604051611748929190613c77565b60405180910390a461176e81856000868660405180602001604052806000815250611f2c565b50505050565b600081600001549050919050565b6000600360009054906101000a900473ffffffffffffffffffffffffffffffffffffffff16905081600360006101000a81548173ffffffffffffffffffffffffffffffffffffffff021916908373ffffffffffffffffffffffffffffffffffffffff1602179055508173ffffffffffffffffffffffffffffffffffffffff168173ffffffffffffffffffffffffffffffffffffffff167f8be0079c531659141344cd1fd0a4f28419497f9722a3daafe3b4186f6b6457e060405160405180910390a35050565b6001816000016000828254019250508190555050565b611866612304565b6001600360146101000a81548160ff0219169083151502179055507f62e78cea01bee320cd4e420270b5ea74000d11b0c9f74754ebdbfc544b05a2586118aa611108565b6040516118b791906130f1565b60405180910390a1565b8173ffffffffffffffffffffffffffffffffffffffff168373ffffffffffffffffffffffffffffffffffffffff160361192f576040517f08c379a000000000000000000000000000000000000000000000000000000000815260040161192690613e44565b60405180910390fd5b80600160008573ffffffffffffffffffffffffffffffffffffffff1673ffffffffffffffffffffffffffffffffffffffff16815260200190815260200160002060008473ffffffffffffffffffffffffffffffffffffffff1673ffffffffffffffffffffffffffffffffffffffff16815260200190815260200160002060006101000a81548160ff0219169083151502179055508173ffffffffffffffffffffffffffffffffffffffff168373ffffffffffffffffffffffffffffffffffffffff167f17307eab39ab6107e8899845ad3d59bd9653f200f220920489ca2b5937696c3183604051611a20919061294c565b60405180910390a3505050565b600073ffffffffffffffffffffffffffffffffffffffff168373ffffffffffffffffffffffffffffffffffffffff1603611a9c576040517f08c379a0000000000000000000000000000000000000000000000000000000008152600401611a9390613d20565b60405180910390fd5b6000611aa6611108565b90506000611ab38461234e565b90506000611ac08461234e565b9050611ae083876000858560405180602001604052806000815250611f0e565b600080600087815260200190815260200160002060008873ffffffffffffffffffffffffffffffffffffffff1673ffffffffffffffffffffffffffffffffffffffff16815260200190815260200160002054905084811015611b77576040517f08c379a0000000000000000000000000000000000000000000000000000000008152600401611b6e90613db2565b60405180910390fd5b84810360008088815260200190815260200160002060008973ffffffffffffffffffffffffffffffffffffffff1673ffffffffffffffffffffffffffffffffffffffff16815260200190815260200160002081905550600073ffffffffffffffffffffffffffffffffffffffff168773ffffffffffffffffffffffffffffffffffffffff168573ffffffffffffffffffffffffffffffffffffffff167fc3d58168c5ae7397731d063d5bbf3d657854427343f4c083240f7aacaa2d0f628989604051611c44929190613e64565b60405180910390a4611c6a84886000868660405180602001604052806000815250611f2c565b50505050505050565b600073ffffffffffffffffffffffffffffffffffffffff168473ffffffffffffffffffffffffffffffffffffffff1603611ce2576040517f08c379a0000000000000000000000000000000000000000000000000000000008152600401611cd990613bc5565b60405180910390fd5b6000611cec611108565b90506000611cf98561234e565b90506000611d068561234e565b9050611d16838989858589611f0e565b600080600088815260200190815260200160002060008a73ffffffffffffffffffffffffffffffffffffffff1673ffffffffffffffffffffffffffffffffffffffff16815260200190815260200160002054905085811015611dad576040517f08c379a0000000000000000000000000000000000000000000000000000000008152600401611da490613c57565b60405180910390fd5b85810360008089815260200190815260200160002060008b73ffffffffffffffffffffffffffffffffffffffff1673ffffffffffffffffffffffffffffffffffffffff168152602001908152602001600020819055508560008089815260200190815260200160002060008a73ffffffffffffffffffffffffffffffffffffffff1673ffffffffffffffffffffffffffffffffffffffff1681526020019081526020016000206000828254611e6291906136a5565b925050819055508773ffffffffffffffffffffffffffffffffffffffff168973ffffffffffffffffffffffffffffffffffffffff168573ffffffffffffffffffffffffffffffffffffffff167fc3d58168c5ae7397731d063d5bbf3d657854427343f4c083240f7aacaa2d0f628a8a604051611edf929190613e64565b60405180910390a4611ef5848a8a86868a611f2c565b611f03848a8a8a8a8a6123c8565b505050505050505050565b611f16612304565b611f2486868686868661259f565b505050505050565b505050505050565b611f538473ffffffffffffffffffffffffffffffffffffffff1661276f565b15612103578373ffffffffffffffffffffffffffffffffffffffff1663bc197c8187878686866040518663ffffffff1660e01b8152600401611f99959493929190613ee2565b6020604051808303816000875af1925050508015611fd557506040513d601f19601f82011682018060405250810190611fd29190613f5f565b60015b61207a57611fe1613f99565b806308c379a00361203d5750611ff5613fbb565b80612000575061203f565b806040517f08c379a00000000000000000000000000000000000000000000000000000000081526004016120349190612be2565b60405180910390fd5b505b6040517f08c379a0000000000000000000000000000000000000000000000000000000008152600401612071906140bd565b60405180910390fd5b63bc197c8160e01b7bffffffffffffffffffffffffffffffffffffffffffffffffffffffff1916817bffffffffffffffffffffffffffffffffffffffffffffffffffffffff191614612101576040517f08c379a00000000000000000000000000000000000000000000000000000000081526004016120f89061414f565b60405180910390fd5b505b505050505050565b612113610aa4565b612152576040517f08c379a0000000000000000000000000000000000000000000000000000000008152600401612149906141bb565b60405180910390fd5b565b600073ffffffffffffffffffffffffffffffffffffffff168473ffffffffffffffffffffffffffffffffffffffff16036121c3576040517f08c379a00000000000000000000000000000000000000000000000000000000081526004016121ba9061424d565b60405180910390fd5b60006121cd611108565b905060006121da8561234e565b905060006121e78561234e565b90506121f883600089858589611f0e565b8460008088815260200190815260200160002060008973ffffffffffffffffffffffffffffffffffffffff1673ffffffffffffffffffffffffffffffffffffffff168152602001908152602001600020600082825461225791906136a5565b925050819055508673ffffffffffffffffffffffffffffffffffffffff16600073ffffffffffffffffffffffffffffffffffffffff168473ffffffffffffffffffffffffffffffffffffffff167fc3d58168c5ae7397731d063d5bbf3d657854427343f4c083240f7aacaa2d0f6289896040516122d5929190613e64565b60405180910390a46122ec83600089858589611f2c565b6122fb836000898989896123c8565b50505050505050565b61230c610aa4565b1561234c576040517f08c379a0000000000000000000000000000000000000000000000000000000008152600401612343906142b9565b60405180910390fd5b565b60606000600167ffffffffffffffff81111561236d5761236c6129c2565b5b60405190808252806020026020018201604052801561239b5781602001602082028036833780820191505090505b50905082816000815181106123b3576123b2613556565b5b60200260200101818152505080915050919050565b6123e78473ffffffffffffffffffffffffffffffffffffffff1661276f565b15612597578373ffffffffffffffffffffffffffffffffffffffff1663f23a6e6187878686866040518663ffffffff1660e01b815260040161242d9594939291906142d9565b6020604051808303816000875af192505050801561246957506040513d601f19601f820116820180604052508101906124669190613f5f565b60015b61250e57612475613f99565b806308c379a0036124d15750612489613fbb565b8061249457506124d3565b806040517f08c379a00000000000000000000000000000000000000000000000000000000081526004016124c89190612be2565b60405180910390fd5b505b6040517f08c379a0000000000000000000000000000000000000000000000000000000008152600401612505906140bd565b60405180910390fd5b63f23a6e6160e01b7bffffffffffffffffffffffffffffffffffffffffffffffffffffffff1916817bffffffffffffffffffffffffffffffffffffffffffffffffffffffff191614612595576040517f08c379a000000000000000000000000000000000000000000000000000000000815260040161258c9061414f565b60405180910390fd5b505b505050505050565b6125ad868686868686612792565b600073ffffffffffffffffffffffffffffffffffffffff168573ffffffffffffffffffffffffffffffffffffffff160361265e5760005b835181101561265c57828181518110612600576125ff613556565b5b60200260200101516004600086848151811061261f5761261e613556565b5b60200260200101518152602001908152602001600020600082825461264491906136a5565b925050819055508061265590613585565b90506125e4565b505b600073ffffffffffffffffffffffffffffffffffffffff168473ffffffffffffffffffffffffffffffffffffffff16036127675760005b83518110156127655760008482815181106126b3576126b2613556565b5b6020026020010151905060008483815181106126d2576126d1613556565b5b6020026020010151905060006004600084815260200190815260200160002054905081811015612737576040517f08c379a000000000000000000000000000000000000000000000000000000000815260040161272e906143a5565b60405180910390fd5b81810360046000858152602001908152602001600020819055505050508061275e90613585565b9050612695565b505b505050505050565b6000808273ffffffffffffffffffffffffffffffffffffffff163b119050919050565b505050505050565b6000604051905090565b600080fd5b600080fd5b600073ffffffffffffffffffffffffffffffffffffffff82169050919050565b60006127d9826127ae565b9050919050565b6127e9816127ce565b81146127f457600080fd5b50565b600081359050612806816127e0565b92915050565b6000819050919050565b61281f8161280c565b811461282a57600080fd5b50565b60008135905061283c81612816565b92915050565b60008060408385031215612859576128586127a4565b5b6000612867858286016127f7565b92505060206128788582860161282d565b9150509250929050565b61288b8161280c565b82525050565b60006020820190506128a66000830184612882565b92915050565b60007fffffffff0000000000000000000000000000000000000000000000000000000082169050919050565b6128e1816128ac565b81146128ec57600080fd5b50565b6000813590506128fe816128d8565b92915050565b60006020828403121561291a576129196127a4565b5b6000612928848285016128ef565b91505092915050565b60008115159050919050565b61294681612931565b82525050565b6000602082019050612961600083018461293d565b92915050565b6000806040838503121561297e5761297d6127a4565b5b600061298c8582860161282d565b925050602061299d8582860161282d565b9150509250929050565b600080fd5b600080fd5b6000601f19601f8301169050919050565b7f4e487b7100000000000000000000000000000000000000000000000000000000600052604160045260246000fd5b6129fa826129b1565b810181811067ffffffffffffffff82111715612a1957612a186129c2565b5b80604052505050565b6000612a2c61279a565b9050612a3882826129f1565b919050565b600067ffffffffffffffff821115612a5857612a576129c2565b5b612a61826129b1565b9050602081019050919050565b82818337600083830152505050565b6000612a90612a8b84612a3d565b612a22565b905082815260208101848484011115612aac57612aab6129ac565b5b612ab7848285612a6e565b509392505050565b600082601f830112612ad457612ad36129a7565b5b8135612ae4848260208601612a7d565b91505092915050565b600060208284031215612b0357612b026127a4565b5b600082013567ffffffffffffffff811115612b2157612b206127a9565b5b612b2d84828501612abf565b91505092915050565b600060208284031215612b4c57612b4b6127a4565b5b6000612b5a8482850161282d565b91505092915050565b600081519050919050565b600082825260208201905092915050565b60005b83811015612b9d578082015181840152602081019050612b82565b60008484015250505050565b6000612bb482612b63565b612bbe8185612b6e565b9350612bce818560208601612b7f565b612bd7816129b1565b840191505092915050565b60006020820190508181036000830152612bfc8184612ba9565b905092915050565b600067ffffffffffffffff821115612c1f57612c1e6129c2565b5b602082029050602081019050919050565b600080fd5b6000612c48612c4384612c04565b612a22565b90508083825260208201905060208402830185811115612c6b57612c6a612c30565b5b835b81811015612c945780612c80888261282d565b845260208401935050602081019050612c6d565b5050509392505050565b600082601f830112612cb357612cb26129a7565b5b8135612cc3848260208601612c35565b91505092915050565b600067ffffffffffffffff821115612ce757612ce66129c2565b5b612cf0826129b1565b9050602081019050919050565b6000612d10612d0b84612ccc565b612a22565b905082815260208101848484011115612d2c57612d2b6129ac565b5b612d37848285612a6e565b509392505050565b600082601f830112612d5457612d536129a7565b5b8135612d64848260208601612cfd565b91505092915050565b600080600080600060a08688031215612d8957612d886127a4565b5b6000612d97888289016127f7565b9550506020612da8888289016127f7565b945050604086013567ffffffffffffffff811115612dc957612dc86127a9565b5b612dd588828901612c9e565b935050606086013567ffffffffffffffff811115612df657612df56127a9565b5b612e0288828901612c9e565b925050608086013567ffffffffffffffff811115612e2357612e226127a9565b5b612e2f88828901612d3f565b9150509295509295909350565b600067ffffffffffffffff821115612e5757612e566129c2565b5b602082029050602081019050919050565b6000612e7b612e7684612e3c565b612a22565b90508083825260208201905060208402830185811115612e9e57612e9d612c30565b5b835b81811015612ec75780612eb388826127f7565b845260208401935050602081019050612ea0565b5050509392505050565b600082601f830112612ee657612ee56129a7565b5b8135612ef6848260208601612e68565b91505092915050565b60008060408385031215612f1657612f156127a4565b5b600083013567ffffffffffffffff811115612f3457612f336127a9565b5b612f4085828601612ed1565b925050602083013567ffffffffffffffff811115612f6157612f606127a9565b5b612f6d85828601612c9e565b9150509250929050565b600081519050919050565b600082825260208201905092915050565b6000819050602082019050919050565b612fac8161280c565b82525050565b6000612fbe8383612fa3565b60208301905092915050565b6000602082019050919050565b6000612fe282612f77565b612fec8185612f82565b9350612ff783612f93565b8060005b8381101561302857815161300f8882612fb2565b975061301a83612fca565b925050600181019050612ffb565b5085935050505092915050565b6000602082019050818103600083015261304f8184612fd7565b905092915050565b6000806000606084860312156130705761306f6127a4565b5b600061307e868287016127f7565b935050602084013567ffffffffffffffff81111561309f5761309e6127a9565b5b6130ab86828701612c9e565b925050604084013567ffffffffffffffff8111156130cc576130cb6127a9565b5b6130d886828701612c9e565b9150509250925092565b6130eb816127ce565b82525050565b600060208201905061310660008301846130e2565b92915050565b61311581612931565b811461312057600080fd5b50565b6000813590506131328161310c565b92915050565b6000806040838503121561314f5761314e6127a4565b5b600061315d858286016127f7565b925050602061316e85828601613123565b9150509250929050565b6000806040838503121561318f5761318e6127a4565b5b600061319d858286016127f7565b92505060206131ae858286016127f7565b9150509250929050565b600080600080600060a086880312156131d4576131d36127a4565b5b60006131e2888289016127f7565b95505060206131f3888289016127f7565b94505060406132048882890161282d565b93505060606132158882890161282d565b925050608086013567ffffffffffffffff811115613236576132356127a9565b5b61324288828901612d3f565b9150509295509295909350565b600060208284031215613265576132646127a4565b5b6000613273848285016127f7565b91505092915050565b600080600060608486031215613295576132946127a4565b5b60006132a3868287016127f7565b93505060206132b48682870161282d565b92505060406132c58682870161282d565b9150509250925092565b7f455243313135353a2061646472657373207a65726f206973206e6f742061207660008201527f616c6964206f776e657200000000000000000000000000000000000000000000602082015250565b600061332b602a83612b6e565b9150613336826132cf565b604082019050919050565b6000602082019050818103600083015261335a8161331e565b9050919050565b7f4e487b7100000000000000000000000000000000000000000000000000000000600052601160045260246000fd5b600061339b8261280c565b91506133a68361280c565b92508282026133b48161280c565b915082820484148315176133cb576133ca613361565b5b5092915050565b7f4e487b7100000000000000000000000000000000000000000000000000000000600052602260045260246000fd5b6000600282049050600182168061341957607f821691505b60208210810361342c5761342b6133d2565b5b50919050565b7f455243313135353a2063616c6c6572206973206e6f7420746f6b656e206f776e60008201527f6572206f7220617070726f766564000000000000000000000000000000000000602082015250565b600061348e602e83612b6e565b915061349982613432565b604082019050919050565b600060208201905081810360008301526134bd81613481565b9050919050565b7f455243313135353a206163636f756e747320616e6420696473206c656e67746860008201527f206d69736d617463680000000000000000000000000000000000000000000000602082015250565b6000613520602983612b6e565b915061352b826134c4565b604082019050919050565b6000602082019050818103600083015261354f81613513565b9050919050565b7f4e487b7100000000000000000000000000000000000000000000000000000000600052603260045260246000fd5b60006135908261280c565b91507fffffffffffffffffffffffffffffffffffffffffffffffffffffffffffffffff82036135c2576135c1613361565b5b600182019050919050565b7f746f6b656e206e6f742072656c65617365642079657400000000000000000000600082015250565b6000613603601683612b6e565b915061360e826135cd565b602082019050919050565b60006020820190508181036000830152613632816135f6565b9050919050565b7f6e6f7420656e6f7567682066756e647300000000000000000000000000000000600082015250565b600061366f601083612b6e565b915061367a82613639565b602082019050919050565b6000602082019050818103600083015261369e81613662565b9050919050565b60006136b08261280c565b91506136bb8361280c565b92508282019050808211156136d3576136d2613361565b5b92915050565b7f6d696e7420616d6f756e742065786365656473206d6178537570706c79000000600082015250565b600061370f601d83612b6e565b915061371a826136d9565b602082019050919050565b6000602082019050818103600083015261373e81613702565b9050919050565b7f4f776e61626c653a206e6577206f776e657220697320746865207a65726f206160008201527f6464726573730000000000000000000000000000000000000000000000000000602082015250565b60006137a1602683612b6e565b91506137ac82613745565b604082019050919050565b600060208201905081810360008301526137d081613794565b9050919050565b7f4f776e61626c653a2063616c6c6572206973206e6f7420746865206f776e6572600082015250565b600061380d602083612b6e565b9150613818826137d7565b602082019050919050565b6000602082019050818103600083015261383c81613800565b9050919050565b60008190508160005260206000209050919050565b60006020601f8301049050919050565b600082821b905092915050565b6000600883026138a57fffffffffffffffffffffffffffffffffffffffffffffffffffffffffffffffff82613868565b6138af8683613868565b95508019841693508086168417925050509392505050565b6000819050919050565b60006138ec6138e76138e28461280c565b6138c7565b61280c565b9050919050565b6000819050919050565b613906836138d1565b61391a613912826138f3565b848454613875565b825550505050565b600090565b61392f613922565b61393a8184846138fd565b505050565b5b8181101561395e57613953600082613927565b600181019050613940565b5050565b601f8211156139a35761397481613843565b61397d84613858565b8101602085101561398c578190505b6139a061399885613858565b83018261393f565b50505b505050565b600082821c905092915050565b60006139c6600019846008026139a8565b1980831691505092915050565b60006139df83836139b5565b9150826002028217905092915050565b6139f882612b63565b67ffffffffffffffff811115613a1157613a106129c2565b5b613a1b8254613401565b613a26828285613962565b600060209050601f831160018114613a595760008415613a47578287015190505b613a5185826139d3565b865550613ab9565b601f198416613a6786613843565b60005b82811015613a8f57848901518255600182019150602085019450602081019050613a6a565b86831015613aac5784890151613aa8601f8916826139b5565b8355505b6001600288020188555050505b505050505050565b7f455243313135353a2069647320616e6420616d6f756e7473206c656e6774682060008201527f6d69736d61746368000000000000000000000000000000000000000000000000602082015250565b6000613b1d602883612b6e565b9150613b2882613ac1565b604082019050919050565b60006020820190508181036000830152613b4c81613b10565b9050919050565b7f455243313135353a207472616e7366657220746f20746865207a65726f20616460008201527f6472657373000000000000000000000000000000000000000000000000000000602082015250565b6000613baf602583612b6e565b9150613bba82613b53565b604082019050919050565b60006020820190508181036000830152613bde81613ba2565b9050919050565b7f455243313135353a20696e73756666696369656e742062616c616e636520666f60008201527f72207472616e7366657200000000000000000000000000000000000000000000602082015250565b6000613c41602a83612b6e565b9150613c4c82613be5565b604082019050919050565b60006020820190508181036000830152613c7081613c34565b9050919050565b60006040820190508181036000830152613c918185612fd7565b90508181036020830152613ca58184612fd7565b90509392505050565b7f455243313135353a206275726e2066726f6d20746865207a65726f206164647260008201527f6573730000000000000000000000000000000000000000000000000000000000602082015250565b6000613d0a602383612b6e565b9150613d1582613cae565b604082019050919050565b60006020820190508181036000830152613d3981613cfd565b9050919050565b7f455243313135353a206275726e20616d6f756e7420657863656564732062616c60008201527f616e636500000000000000000000000000000000000000000000000000000000602082015250565b6000613d9c602483612b6e565b9150613da782613d40565b604082019050919050565b60006020820190508181036000830152613dcb81613d8f565b9050919050565b7f455243313135353a2073657474696e6720617070726f76616c2073746174757360008201527f20666f722073656c660000000000000000000000000000000000000000000000602082015250565b6000613e2e602983612b6e565b9150613e3982613dd2565b604082019050919050565b60006020820190508181036000830152613e5d81613e21565b9050919050565b6000604082019050613e796000830185612882565b613e866020830184612882565b9392505050565b600081519050919050565b600082825260208201905092915050565b6000613eb482613e8d565b613ebe8185613e98565b9350613ece818560208601612b7f565b613ed7816129b1565b840191505092915050565b600060a082019050613ef760008301886130e2565b613f0460208301876130e2565b8181036040830152613f168186612fd7565b90508181036060830152613f2a8185612fd7565b90508181036080830152613f3e8184613ea9565b90509695505050505050565b600081519050613f59816128d8565b92915050565b600060208284031215613f7557613f746127a4565b5b6000613f8384828501613f4a565b91505092915050565b60008160e01c9050919050565b600060033d1115613fb85760046000803e613fb5600051613f8c565b90505b90565b600060443d1061404857613fcd61279a565b60043d036004823e80513d602482011167ffffffffffffffff82111715613ff5575050614048565b808201805167ffffffffffffffff8111156140135750505050614048565b80602083010160043d038501811115614030575050505050614048565b61403f826020018501866129f1565b82955050505050505b90565b7f455243313135353a207472616e7366657220746f206e6f6e2d4552433131353560008201527f526563656976657220696d706c656d656e746572000000000000000000000000602082015250565b60006140a7603483612b6e565b91506140b28261404b565b604082019050919050565b600060208201905081810360008301526140d68161409a565b9050919050565b7f455243313135353a204552433131353552656365697665722072656a6563746560008201527f6420746f6b656e73000000000000000000000000000000000000000000000000602082015250565b6000614139602883612b6e565b9150614144826140dd565b604082019050919050565b600060208201905081810360008301526141688161412c565b9050919050565b7f5061757361626c653a206e6f7420706175736564000000000000000000000000600082015250565b60006141a5601483612b6e565b91506141b08261416f565b602082019050919050565b600060208201905081810360008301526141d481614198565b9050919050565b7f455243313135353a206d696e7420746f20746865207a65726f2061646472657360008201527f7300000000000000000000000000000000000000000000000000000000000000602082015250565b6000614237602183612b6e565b9150614242826141db565b604082019050919050565b600060208201905081810360008301526142668161422a565b9050919050565b7f5061757361626c653a2070617573656400000000000000000000000000000000600082015250565b60006142a3601083612b6e565b91506142ae8261426d565b602082019050919050565b600060208201905081810360008301526142d281614296565b9050919050565b600060a0820190506142ee60008301886130e2565b6142fb60208301876130e2565b6143086040830186612882565b6143156060830185612882565b81810360808301526143278184613ea9565b90509695505050505050565b7f455243313135353a206275726e20616d6f756e74206578636565647320746f7460008201527f616c537570706c79000000000000000000000000000000000000000000000000602082015250565b600061438f602883612b6e565b915061439a82614333565b604082019050919050565b600060208201905081810360008301526143be81614382565b905091905056fea26469706673582212202d6620a08bc4c343ba6cd46dcb9cd0a60ff0a105bae3fa94baca3665375d654e64736f6c63430008110033",
  "immutableReferences": {},
  "source": "// SPDX-License-Identifier: MIT\npragma solidity 0.8.17;\n\nimport \"@openzeppelin/contracts/token/ERC1155/ERC1155.sol\";\nimport \"@openzeppelin/contracts/access/Ownable.sol\";\nimport \"@openzeppelin/contracts/security/Pausable.sol\";\nimport \"@openzeppelin/contracts/token/ERC1155/extensions/ERC1155Burnable.sol\";\nimport \"@openzeppelin/contracts/token/ERC1155/extensions/ERC1155Supply.sol\";\nimport \"@openzeppelin/contracts/utils/Counters.sol\";\nimport \"@openzeppelin/contracts/utils/Strings.sol\";\n\ncontract BacchusVault is\n    ERC1155,\n    Ownable,\n    Pausable,\n    ERC1155Burnable,\n    ERC1155Supply\n{\n    using Counters for Counters.Counter;\n    Counters.Counter private _currentId;\n    mapping(uint256 => uint256) private maxSupply;\n    mapping(uint256 => uint256) private mintPrice;\n\n    constructor() ERC1155(\"\") {}\n\n    // :: ID ::\n    function getCurrentId() public view returns (uint256) {\n        return _currentId.current();\n    }\n\n    // :: SUPPLY ::\n    function getMaxSupply(uint256 _id) public view returns (uint256) {\n        return maxSupply[_id];\n    }\n\n    // :: MINT PRICE ::\n    function getMintPrice(uint256 _id) public view returns (uint256) {\n        return mintPrice[_id];\n    }\n\n    function setMintPrice(uint256 _id, uint256 _price) external {\n        mintPrice[_id] = _price * 1 ether;\n    }\n\n    // TODO: add description as data : bytes(abi.encodePacked(\"Bottle #\", Strings.toString(_currentId.current())));\n    /**\n     * TODO: To make it work with opensea\n     * function uri(uint _tokenId) override public view returns (string memory) {\n     *  return string(abi.encodePacked(\n     *    \"ipfs://HASH_HERE/\",\n     *    Strings.toString(_tokenId),\n     *    \".json\"\n     *  ));\n     * }\n     * TODO: to show the name of the collection on opensea\n     * function name() public returns (string memory) {\n     *  string memory name = \"Collection name\";\n     *  return name;\n     * }\n     */\n    // :: MINT ::\n    function mintNew(uint256 _amount, uint256 _maxSupply) external onlyOwner {\n        maxSupply[_currentId.current()] = _maxSupply;\n        mint(msg.sender, _currentId.current(), _amount, \"\");\n        _currentId.increment();\n    }\n\n    function mintId(uint256 _id, uint256 _amount) external payable {\n        require(exists(_id), \"token not released yet\");\n        require(msg.value == mintPrice[_id] * _amount, \"not enough funds\");\n        bool isMintable = _amount + totalSupply(_id) <= maxSupply[_id];\n        require(isMintable, \"mint amount exceeds maxSupply\");\n        mint(msg.sender, _id, _amount, \"\");\n    }\n\n    // :: URI ::\n    function setNewURI(string memory _newURI) external onlyOwner {\n        _setURI(_newURI);\n    }\n\n    // :: BURN ::\n    function burnThemAll(uint256 _id) external onlyOwner {\n        _burn(msg.sender, _id, totalSupply(_id));\n    }\n\n    // :: PAUSE ::\n    function pause() public onlyOwner {\n        _pause();\n    }\n\n    function unpause() public onlyOwner {\n        _unpause();\n    }\n\n    // :: INTERNAL ::\n    function _beforeTokenTransfer(\n        address operator,\n        address from,\n        address to,\n        uint256[] memory ids,\n        uint256[] memory amounts,\n        bytes memory data\n    ) internal override(ERC1155, ERC1155Supply) whenNotPaused {\n        super._beforeTokenTransfer(operator, from, to, ids, amounts, data);\n    }\n\n    // :: PRIVATE ::\n    function mint(\n        address account,\n        uint256 id,\n        uint256 amount,\n        bytes memory data\n    ) private {\n        _mint(account, id, amount, data);\n    }\n}\n",
  "sourcePath": "/home/tehjul/dev/CoursAlyra/BacchusVault/truffle/contracts/BacchusVaultERC1155.sol",
  "compiler": {
    "name": "solc",
    "version": "0.8.17+commit.8df45f5f.Emscripten.clang"
  },
  "schemaVersion": "3.4.10",
  "updatedAt": "2022-11-28T20:41:41.242Z",
  "networkType": "ethereum",
  "devdoc": {
    "kind": "dev",
    "methods": {
      "balanceOf(address,uint256)": {
        "details": "See {IERC1155-balanceOf}. Requirements: - `account` cannot be the zero address."
      },
      "balanceOfBatch(address[],uint256[])": {
        "details": "See {IERC1155-balanceOfBatch}. Requirements: - `accounts` and `ids` must have the same length."
      },
      "exists(uint256)": {
        "details": "Indicates whether any token exist with a given id, or not."
      },
      "isApprovedForAll(address,address)": {
        "details": "See {IERC1155-isApprovedForAll}."
      },
      "owner()": {
        "details": "Returns the address of the current owner."
      },
      "paused()": {
        "details": "Returns true if the contract is paused, and false otherwise."
      },
      "renounceOwnership()": {
        "details": "Leaves the contract without owner. It will not be possible to call `onlyOwner` functions anymore. Can only be called by the current owner. NOTE: Renouncing ownership will leave the contract without an owner, thereby removing any functionality that is only available to the owner."
      },
      "safeBatchTransferFrom(address,address,uint256[],uint256[],bytes)": {
        "details": "See {IERC1155-safeBatchTransferFrom}."
      },
      "safeTransferFrom(address,address,uint256,uint256,bytes)": {
        "details": "See {IERC1155-safeTransferFrom}."
      },
      "setApprovalForAll(address,bool)": {
        "details": "See {IERC1155-setApprovalForAll}."
      },
      "supportsInterface(bytes4)": {
        "details": "See {IERC165-supportsInterface}."
      },
      "totalSupply(uint256)": {
        "details": "Total amount of tokens in with a given id."
      },
      "transferOwnership(address)": {
        "details": "Transfers ownership of the contract to a new account (`newOwner`). Can only be called by the current owner."
      },
      "uri(uint256)": {
        "details": "See {IERC1155MetadataURI-uri}. This implementation returns the same URI for *all* token types. It relies on the token type ID substitution mechanism https://eips.ethereum.org/EIPS/eip-1155#metadata[defined in the EIP]. Clients calling this function must replace the `\\{id\\}` substring with the actual token type ID."
      }
    },
    "version": 1
  },
  "userdoc": {
    "kind": "user",
    "methods": {
      "mintNew(uint256,uint256)": {
        "notice": "TODO: To make it work with opensea function uri(uint _tokenId) override public view returns (string memory) {  return string(abi.encodePacked(    \"ipfs://HASH_HERE/\",    Strings.toString(_tokenId),    \".json\"  )); } TODO: to show the name of the collection on opensea function name() public returns (string memory) {  string memory name = \"Collection name\";  return name; }"
      }
    },
    "version": 1
  }
}