{
  "contractName": "BacchusVaultGovernor",
  "abi": [
    {
      "inputs": [
        {
          "internalType": "contract BacchusVaultERC1155",
          "name": "bacchusVaultERC1155Address",
          "type": "address"
        }
      ],
      "stateMutability": "nonpayable",
      "type": "constructor"
    },
    {
      "anonymous": false,
      "inputs": [
        {
          "indexed": true,
          "internalType": "address",
          "name": "previousOwner",
          "type": "address"
        },
        {
          "indexed": true,
          "internalType": "address",
          "name": "newOwner",
          "type": "address"
        }
      ],
      "name": "OwnershipTransferred",
      "type": "event"
    },
    {
      "inputs": [],
      "name": "bacchusVaultERC1155",
      "outputs": [
        {
          "internalType": "contract BacchusVaultERC1155",
          "name": "",
          "type": "address"
        }
      ],
      "stateMutability": "view",
      "type": "function",
      "constant": true
    },
    {
      "inputs": [],
      "name": "owner",
      "outputs": [
        {
          "internalType": "address",
          "name": "",
          "type": "address"
        }
      ],
      "stateMutability": "view",
      "type": "function",
      "constant": true
    },
    {
      "inputs": [],
      "name": "renounceOwnership",
      "outputs": [],
      "stateMutability": "nonpayable",
      "type": "function"
    },
    {
      "inputs": [],
      "name": "sellingSessionMinimumDuration",
      "outputs": [
        {
          "internalType": "uint256",
          "name": "",
          "type": "uint256"
        }
      ],
      "stateMutability": "view",
      "type": "function",
      "constant": true
    },
    {
      "inputs": [],
      "name": "sellingSessionStartDate",
      "outputs": [
        {
          "internalType": "uint256",
          "name": "",
          "type": "uint256"
        }
      ],
      "stateMutability": "view",
      "type": "function",
      "constant": true
    },
    {
      "inputs": [],
      "name": "sellingSessionStatus",
      "outputs": [
        {
          "internalType": "enum SellingSessionStatus",
          "name": "",
          "type": "uint8"
        }
      ],
      "stateMutability": "view",
      "type": "function",
      "constant": true
    },
    {
      "inputs": [
        {
          "internalType": "address",
          "name": "newOwner",
          "type": "address"
        }
      ],
      "name": "transferOwnership",
      "outputs": [],
      "stateMutability": "nonpayable",
      "type": "function"
    },
    {
      "inputs": [
        {
          "internalType": "uint256",
          "name": "",
          "type": "uint256"
        }
      ],
      "name": "votedOnBottlesIds",
      "outputs": [
        {
          "internalType": "uint256",
          "name": "",
          "type": "uint256"
        }
      ],
      "stateMutability": "view",
      "type": "function",
      "constant": true
    },
    {
      "inputs": [],
      "name": "_onSetVotingSessionStatusToVoting",
      "outputs": [],
      "stateMutability": "nonpayable",
      "type": "function"
    },
    {
      "inputs": [
        {
          "internalType": "uint256",
          "name": "bottleId",
          "type": "uint256"
        },
        {
          "internalType": "bool",
          "name": "hold",
          "type": "bool"
        }
      ],
      "name": "Vote",
      "outputs": [
        {
          "internalType": "uint256",
          "name": "",
          "type": "uint256"
        }
      ],
      "stateMutability": "nonpayable",
      "type": "function"
    },
    {
      "inputs": [],
      "name": "_onSetVotingSessionToAuction",
      "outputs": [],
      "stateMutability": "nonpayable",
      "type": "function"
    },
    {
      "inputs": [
        {
          "internalType": "uint256",
          "name": "bottleId",
          "type": "uint256"
        },
        {
          "internalType": "uint256",
          "name": "price",
          "type": "uint256"
        }
      ],
      "name": "addAuctionSell",
      "outputs": [],
      "stateMutability": "nonpayable",
      "type": "function"
    },
    {
      "inputs": [
        {
          "internalType": "uint256",
          "name": "bottleId",
          "type": "uint256"
        },
        {
          "internalType": "uint256",
          "name": "price",
          "type": "uint256"
        }
      ],
      "name": "updateAuctionSell",
      "outputs": [],
      "stateMutability": "nonpayable",
      "type": "function"
    },
    {
      "inputs": [
        {
          "internalType": "uint256",
          "name": "bottleId",
          "type": "uint256"
        }
      ],
      "name": "deleteAuctionSell",
      "outputs": [],
      "stateMutability": "nonpayable",
      "type": "function"
    },
    {
      "inputs": [],
      "name": "_onSetVotingSessionToClosed",
      "outputs": [],
      "stateMutability": "nonpayable",
      "type": "function"
    },
    {
      "inputs": [
        {
          "internalType": "address",
          "name": "",
          "type": "address"
        },
        {
          "internalType": "address",
          "name": "",
          "type": "address"
        },
        {
          "internalType": "uint256",
          "name": "",
          "type": "uint256"
        },
        {
          "internalType": "uint256",
          "name": "",
          "type": "uint256"
        },
        {
          "internalType": "bytes",
          "name": "",
          "type": "bytes"
        }
      ],
      "name": "onERC1155Received",
      "outputs": [
        {
          "internalType": "bytes4",
          "name": "",
          "type": "bytes4"
        }
      ],
      "stateMutability": "nonpayable",
      "type": "function"
    },
    {
      "inputs": [
        {
          "internalType": "address",
          "name": "",
          "type": "address"
        },
        {
          "internalType": "address",
          "name": "",
          "type": "address"
        },
        {
          "internalType": "uint256[]",
          "name": "",
          "type": "uint256[]"
        },
        {
          "internalType": "uint256[]",
          "name": "",
          "type": "uint256[]"
        },
        {
          "internalType": "bytes",
          "name": "",
          "type": "bytes"
        }
      ],
      "name": "onERC1155BatchReceived",
      "outputs": [
        {
          "internalType": "bytes4",
          "name": "",
          "type": "bytes4"
        }
      ],
      "stateMutability": "nonpayable",
      "type": "function"
    },
    {
      "inputs": [
        {
          "internalType": "uint256",
          "name": "_sellingSessionMinimumDuration",
          "type": "uint256"
        }
      ],
      "name": "_setsellingSessionMinimumDuration",
      "outputs": [],
      "stateMutability": "nonpayable",
      "type": "function"
    },
    {
      "inputs": [
        {
          "internalType": "string",
          "name": "a",
          "type": "string"
        },
        {
          "internalType": "string",
          "name": "b",
          "type": "string"
        }
      ],
      "name": "concatenate",
      "outputs": [
        {
          "internalType": "string",
          "name": "",
          "type": "string"
        }
      ],
      "stateMutability": "pure",
      "type": "function",
      "constant": true
    },
    {
      "inputs": [],
      "name": "getSellingSessionStatus",
      "outputs": [
        {
          "internalType": "enum SellingSessionStatus",
          "name": "",
          "type": "uint8"
        }
      ],
      "stateMutability": "view",
      "type": "function",
      "constant": true
    },
    {
      "inputs": [
        {
          "internalType": "uint256",
          "name": "_bottleId",
          "type": "uint256"
        }
      ],
      "name": "getBottleAuctionResults",
      "outputs": [
        {
          "components": [
            {
              "internalType": "bool",
              "name": "sold",
              "type": "bool"
            },
            {
              "internalType": "uint256",
              "name": "price",
              "type": "uint256"
            },
            {
              "internalType": "uint256",
              "name": "sessionId",
              "type": "uint256"
            }
          ],
          "internalType": "struct BacchusVaultGovernor.BottleAuctionResults",
          "name": "",
          "type": "tuple"
        }
      ],
      "stateMutability": "view",
      "type": "function",
      "constant": true
    },
    {
      "inputs": [
        {
          "internalType": "uint256",
          "name": "_bottleId",
          "type": "uint256"
        },
        {
          "internalType": "address",
          "name": "_address",
          "type": "address"
        }
      ],
      "name": "getVoted",
      "outputs": [
        {
          "internalType": "bool",
          "name": "",
          "type": "bool"
        }
      ],
      "stateMutability": "view",
      "type": "function",
      "constant": true
    },
    {
      "inputs": [
        {
          "internalType": "uint256",
          "name": "_bottleId",
          "type": "uint256"
        },
        {
          "internalType": "address",
          "name": "_address",
          "type": "address"
        }
      ],
      "name": "getVotedToHold",
      "outputs": [
        {
          "internalType": "bool",
          "name": "",
          "type": "bool"
        }
      ],
      "stateMutability": "view",
      "type": "function",
      "constant": true
    },
    {
      "inputs": [],
      "name": "deposit",
      "outputs": [],
      "stateMutability": "payable",
      "type": "function",
      "payable": true
    },
    {
      "inputs": [
        {
          "internalType": "uint256",
          "name": "_bottleId",
          "type": "uint256"
        }
      ],
      "name": "getNumberOfSellVotes",
      "outputs": [
        {
          "internalType": "uint256",
          "name": "",
          "type": "uint256"
        }
      ],
      "stateMutability": "view",
      "type": "function",
      "constant": true
    }
  ],
  "bytecode": "0x60a06040523480156200001157600080fd5b506040516200214c3803806200214c8339810160408190526200003491620000ab565b6200003f336200005b565b6001600160a01b03166080526002805460ff19169055620000dd565b600080546001600160a01b038381166001600160a01b0319831681178455604051919092169283917f8be0079c531659141344cd1fd0a4f28419497f9722a3daafe3b4186f6b6457e09190a35050565b600060208284031215620000be57600080fd5b81516001600160a01b0381168114620000d657600080fd5b9392505050565b608051611fea62000162600039600081816102c9015281816105a1015281816107fd015281816108910152818161091101528181610a2901528181610b7501528181610cde01528181610dc601528181610f1a0152818161101d015281816111e5015281816112eb015281816113c30152818161148e015261180a0152611fea6000f3fe6080604052600436106101665760003560e01c80638bfa1f40116100d1578063c8d957181161008a578063e1e0674a11610064578063e1e0674a14610467578063f23a6e611461047f578063f2fde38b146104ab578063f6259eed146104cb57600080fd5b8063c8d9571814610427578063d0e30db0146101ed578063dbbda5291461044757600080fd5b80638bfa1f40146103385780638da5cb5b14610358578063a1ea6bdf14610376578063b62784f01461038b578063bc197c81146103b2578063bc7a7ca2146103f757600080fd5b80634548d2a7116101235780634548d2a71461024857806346e9f16c1461025d57806357c6cd6b14610273578063639f5819146102b7578063715018a614610303578063805eade71461031857600080fd5b80631cc5f1351461016b578063266001d3146101a0578063306353d6146101cd57806330a89710146101ef57806331a38e1a1461020f57806338f6787514610233575b600080fd5b34801561017757600080fd5b5061018b610186366004611a5f565b6104eb565b60405190151581526020015b60405180910390f35b3480156101ac57600080fd5b506101c06101bb366004611b42565b610518565b6040516101979190611bca565b3480156101d957600080fd5b506101ed6101e8366004611bfd565b610544565b005b3480156101fb57600080fd5b5061018b61020a366004611a5f565b6106ed565b34801561021b57600080fd5b5061022560035481565b604051908152602001610197565b34801561023f57600080fd5b506101ed610724565b34801561025457600080fd5b506101ed610996565b34801561026957600080fd5b5061022560045481565b34801561027f57600080fd5b5061029361028e366004611c1f565b610aab565b60408051825115158152602080840151908201529181015190820152606001610197565b3480156102c357600080fd5b506102eb7f000000000000000000000000000000000000000000000000000000000000000081565b6040516001600160a01b039091168152602001610197565b34801561030f57600080fd5b506101ed610b0f565b34801561032457600080fd5b506101ed610333366004611bfd565b610b21565b34801561034457600080fd5b50610225610353366004611c46565b610c52565b34801561036457600080fd5b506000546001600160a01b03166102eb565b34801561038257600080fd5b506101ed6110a2565b34801561039757600080fd5b506002546103a59060ff1681565b6040516101979190611c8c565b3480156103be57600080fd5b506103de6103cd366004611d34565b63bc197c8160e01b95945050505050565b6040516001600160e01b03199091168152602001610197565b34801561040357600080fd5b50610225610412366004611c1f565b60009081526008602052604090206001015490565b34801561043357600080fd5b506101ed610442366004611c1f565b61142d565b34801561045357600080fd5b506101ed610462366004611c1f565b61143a565b34801561047357600080fd5b5060025460ff166103a5565b34801561048b57600080fd5b506103de61049a366004611dde565b63f23a6e6160e01b95945050505050565b3480156104b757600080fd5b506101ed6104c6366004611e43565b6115d2565b3480156104d757600080fd5b506102256104e6366004611c1f565b611648565b60008281526006602090815260408083206001600160a01b038516845290915290205460ff165b92915050565b6060828260405160200161052d929190611e5e565b604051602081830303815290604052905092915050565b61054c611669565b6002805460ff168181111561056357610563611c76565b146105895760405162461bcd60e51b815260040161058090611e9a565b60405180910390fd5b6003604051636eedc78b60e01b8152600481018490527f00000000000000000000000000000000000000000000000000000000000000006001600160a01b031690636eedc78b90602401602060405180830381865afa1580156105f0573d6000803e3d6000fd5b505050506040513d601f19601f820116820180604052508101906106149190611eee565b600681111561062557610625611c76565b146106725760405162461bcd60e51b815260206004820152601a60248201527f626f74746c652073746174757320213d2066726f6d20486f6c640000000000006044820152606401610580565b600154600083815260076020526040902060020154146106d45760405162461bcd60e51b815260206004820152601e60248201527f546869732073656c6c696e672073657373696f6e20697320636c6f73656400006044820152606401610580565b6106e9600183836106e460015490565b6116c3565b5050565b60006106f860015490565b60008481526005602090815260408083206001600160a01b038716845290915290205414905092915050565b61072c611669565b6002805460ff168181111561074357610743611c76565b146107905760405162461bcd60e51b815260206004820152601d60248201527f626f74746c652073746174757320213d2066726f6d2041756374696f6e0000006044820152606401610580565b61079e600180546001019055565b60005b600a54811015610989576000600a82815481106107c0576107c0611f0f565b6000918252602080832090910154808352600790915260409091205490915060ff16156108fb5760405163386b8ddf60e11b8152600481018290527f00000000000000000000000000000000000000000000000000000000000000006001600160a01b0316906370d71bbe90602401600060405180830381600087803b15801561084957600080fd5b505af115801561085d573d6000803e3d6000fd5b505050600082815260076020526040908190206001015490516315cb4bb960e01b81526004810184905260248101919091527f00000000000000000000000000000000000000000000000000000000000000006001600160a01b031691506315cb4bb990604401600060405180830381600087803b1580156108de57600080fd5b505af11580156108f2573d6000803e3d6000fd5b50505050610976565b6040516377f5b06f60e01b8152600481018290527f00000000000000000000000000000000000000000000000000000000000000006001600160a01b0316906377f5b06f90602401600060405180830381600087803b15801561095d57600080fd5b505af1158015610971573d6000803e3d6000fd5b505050505b508061098181611f3b565b9150506107a1565b506002805460ff19169055565b61099e611669565b60006002805460ff16908111156109b7576109b7611c76565b14610a0f5760405162461bcd60e51b815260206004820152602260248201527f53656c696e6753657373696f6e53746174757320213d2066726f6d20436c6f73604482015261195960f21b6064820152608401610580565b4260035560405163cfd00fe160e01b8152600160048201527f00000000000000000000000000000000000000000000000000000000000000006001600160a01b03169063cfd00fe190602401600060405180830381600087803b158015610a7557600080fd5b505af1158015610a89573d6000803e3d6000fd5b50506002805460ff1916600190811790915580548101905550610aa99050565b565b610ad1604051806060016040528060001515815260200160008152602001600081525090565b506000908152600760209081526040918290208251606081018452815460ff1615158152600182015492810192909252600201549181019190915290565b610b17611669565b610aa960006116ee565b610b29611669565b6002805460ff1681811115610b4057610b40611c76565b14610b5d5760405162461bcd60e51b815260040161058090611e9a565b6004604051636eedc78b60e01b8152600481018490527f00000000000000000000000000000000000000000000000000000000000000006001600160a01b031690636eedc78b90602401602060405180830381865afa158015610bc4573d6000803e3d6000fd5b505050506040513d601f19601f82011682018060405250810190610be89190611eee565b6006811115610bf957610bf9611c76565b146106d45760405162461bcd60e51b815260206004820152602360248201527f626f74746c652073746174757320213d2066726f6d205265616479546f4265536044820152621bdb1960ea1b6064820152608401610580565b600060016002805460ff1690811115610c6d57610c6d611c76565b14610cc65760405162461bcd60e51b8152602060048201526024808201527f2053656c696e6753657373696f6e53746174757320213d2066726f6d20566f74604482015263034b733960e51b6064820152608401610580565b6003604051636eedc78b60e01b8152600481018590527f00000000000000000000000000000000000000000000000000000000000000006001600160a01b031690636eedc78b90602401602060405180830381865afa158015610d2d573d6000803e3d6000fd5b505050506040513d601f19601f82011682018060405250810190610d519190611eee565b6006811115610d6257610d62611c76565b14610dc45760405162461bcd60e51b815260206004820152602c60248201527f20596f752063616e277420766f7465206f6e20626f74746c65206e6f7420696e60448201526b0103437b6321039ba30ba32960a51b6064820152608401610580565b7f00000000000000000000000000000000000000000000000000000000000000006001600160a01b0316631986d3766040518163ffffffff1660e01b8152600401602060405180830381865afa158015610e22573d6000803e3d6000fd5b505050506040513d601f19601f82011682018060405250810190610e469190611f54565b610e925760405162461bcd60e51b815260206004820152601860248201527f204552433131353520566f74696e672069732046616c736500000000000000006044820152606401610580565b600154600084815260056020908152604080832033845290915290205403610efc5760405162461bcd60e51b815260206004820152601860248201527f20596f75206861766520616c726561647920766f7465642000000000000000006044820152606401610580565b604051627eeac760e11b8152336004820152602481018490526000907f00000000000000000000000000000000000000000000000000000000000000006001600160a01b03169062fdd58e90604401602060405180830381865afa158015610f68573d6000803e3d6000fd5b505050506040513d601f19601f82011682018060405250810190610f8c9190611f71565b11610fff5760405162461bcd60e51b815260206004820152603760248201527f20796f752073686f756c642068617665206174206c65617374206f6e6520746f60448201527f6b656e20746f2062652061626c6520746f20766f7465200000000000000000006064820152608401610580565b604051627eeac760e11b8152336004820152602481018490526000907f00000000000000000000000000000000000000000000000000000000000000006001600160a01b03169062fdd58e90604401602060405180830381865afa15801561106b573d6000803e3d6000fd5b505050506040513d601f19601f8201168201806040525081019061108f9190611f71565b905061109b848461173e565b9392505050565b6110aa611669565b6004546003546110ba9190611f8a565b42101561110e6040518060400160405280601f81526020017f63616e277420636c6f7365206265666f72652074696d657374616d70203a20008152506101bb6004546003546111099190611f8a565b6118a6565b9061112c5760405162461bcd60e51b81526004016105809190611bca565b5060016002805460ff169081111561114657611146611c76565b1461119e5760405162461bcd60e51b815260206004820152602260248201527f53656c696e6753657373696f6e53746174757320213d2066726f6d20566f74696044820152616e6760f01b6064820152608401610580565b60005b60095481101561139857600060086000600984815481106111c4576111c4611f0f565b906000526020600020015481526020019081526020016000206000015490507f00000000000000000000000000000000000000000000000000000000000000006001600160a01b0316635e495d746009848154811061122557611225611f0f565b90600052602060002001546040518263ffffffff1660e01b815260040161124e91815260200190565b602060405180830381865afa15801561126b573d6000803e3d6000fd5b505050506040513d601f19601f8201168201806040525081019061128f9190611f71565b60086000600985815481106112a6576112a6611f0f565b906000526020600020015481526020019081526020016000206001015460026112cf9190611f9d565b111561138557604051632e50733560e21b8152600481018290527f00000000000000000000000000000000000000000000000000000000000000006001600160a01b03169063b941ccd490602401600060405180830381600087803b15801561133757600080fd5b505af115801561134b573d6000803e3d6000fd5b5050600a80546001810182556000919091527fc65a7bb8d6351c1cf70c95a316cc6a92839c986682d98bc35f958f4883f9d2a80183905550505b508061139081611f3b565b9150506111a1565b506002805460ff19168117905560405163cfd00fe160e01b8152600060048201526001600160a01b037f0000000000000000000000000000000000000000000000000000000000000000169063cfd00fe190602401600060405180830381600087803b15801561140757600080fd5b505af115801561141b573d6000803e3d6000fd5b5050505060096000610aa99190611a11565b611435611669565b600455565b611442611669565b6002805460ff168181111561145957611459611c76565b146114765760405162461bcd60e51b815260040161058090611e9a565b6003604051636eedc78b60e01b8152600481018390527f00000000000000000000000000000000000000000000000000000000000000006001600160a01b031690636eedc78b90602401602060405180830381865afa1580156114dd573d6000803e3d6000fd5b505050506040513d601f19601f820116820180604052508101906115019190611eee565b600681111561151257611512611c76565b1461155f5760405162461bcd60e51b815260206004820152601a60248201527f626f74746c652073746174757320213d2066726f6d20486f6c640000000000006044820152606401610580565b600154600082815260076020526040902060020154146115c15760405162461bcd60e51b815260206004820152601e60248201527f546869732073656c6c696e672073657373696f6e20697320636c6f73656400006044820152606401610580565b6115cf6000826000806116c3565b50565b6115da611669565b6001600160a01b03811661163f5760405162461bcd60e51b815260206004820152602660248201527f4f776e61626c653a206e6577206f776e657220697320746865207a65726f206160448201526564647265737360d01b6064820152608401610580565b6115cf816116ee565b6009818154811061165857600080fd5b600091825260209091200154905081565b6000546001600160a01b03163314610aa95760405162461bcd60e51b815260206004820181905260248201527f4f776e61626c653a2063616c6c6572206973206e6f7420746865206f776e65726044820152606401610580565b600092835260076020526040909220805460ff19169315159390931783556001830155600290910155565b600080546001600160a01b038381166001600160a01b0319831681178455604051919092169283917f8be0079c531659141344cd1fd0a4f28419497f9722a3daafe3b4186f6b6457e09190a35050565b600154600083815260056020908152604080832033808552908352818420949094558583526006825280832093835292905220805460ff1916821515179055600154600083815260086020526040902060020154146117ea576000828152600860205260408120600180820183905580546002909201919091556009805491820181559091527f6e1540171b6c0c960b71a7020d9f60077f6af931a8bbf590da0223dacf75c7af018290555b806106e957604051627eeac760e11b8152336004820152602481018390527f00000000000000000000000000000000000000000000000000000000000000006001600160a01b03169062fdd58e90604401602060405180830381865afa158015611858573d6000803e3d6000fd5b505050506040513d601f19601f8201168201806040525081019061187c9190611f71565b6000838152600860205260408120600101805490919061189d908490611f8a565b90915550505050565b606060006118b383611939565b600101905060008167ffffffffffffffff8111156118d3576118d3611a8b565b6040519080825280601f01601f1916602001820160405280156118fd576020820181803683370190505b5090508181016020015b600019016f181899199a1a9b1b9c1cb0b131b232b360811b600a86061a8153600a850494508461190757509392505050565b60008072184f03e93ff9f4daa797ed6e38ed64bf6a1f0160401b83106119785772184f03e93ff9f4daa797ed6e38ed64bf6a1f0160401b830492506040015b6d04ee2d6d415b85acef810000000083106119a4576d04ee2d6d415b85acef8100000000830492506020015b662386f26fc1000083106119c257662386f26fc10000830492506010015b6305f5e10083106119da576305f5e100830492506008015b61271083106119ee57612710830492506004015b60648310611a00576064830492506002015b600a83106105125760010192915050565b50805460008255906000526020600020908101906115cf91905b80821115611a3f5760008155600101611a2b565b5090565b80356001600160a01b0381168114611a5a57600080fd5b919050565b60008060408385031215611a7257600080fd5b82359150611a8260208401611a43565b90509250929050565b634e487b7160e01b600052604160045260246000fd5b604051601f8201601f1916810167ffffffffffffffff81118282101715611aca57611aca611a8b565b604052919050565b600082601f830112611ae357600080fd5b813567ffffffffffffffff811115611afd57611afd611a8b565b611b10601f8201601f1916602001611aa1565b818152846020838601011115611b2557600080fd5b816020850160208301376000918101602001919091529392505050565b60008060408385031215611b5557600080fd5b823567ffffffffffffffff80821115611b6d57600080fd5b611b7986838701611ad2565b93506020850135915080821115611b8f57600080fd5b50611b9c85828601611ad2565b9150509250929050565b60005b83811015611bc1578181015183820152602001611ba9565b50506000910152565b6020815260008251806020840152611be9816040850160208701611ba6565b601f01601f19169190910160400192915050565b60008060408385031215611c1057600080fd5b50508035926020909101359150565b600060208284031215611c3157600080fd5b5035919050565b80151581146115cf57600080fd5b60008060408385031215611c5957600080fd5b823591506020830135611c6b81611c38565b809150509250929050565b634e487b7160e01b600052602160045260246000fd5b6020810160038310611cae57634e487b7160e01b600052602160045260246000fd5b91905290565b600082601f830112611cc557600080fd5b8135602067ffffffffffffffff821115611ce157611ce1611a8b565b8160051b611cf0828201611aa1565b9283528481018201928281019087851115611d0a57600080fd5b83870192505b84831015611d2957823582529183019190830190611d10565b979650505050505050565b600080600080600060a08688031215611d4c57600080fd5b611d5586611a43565b9450611d6360208701611a43565b9350604086013567ffffffffffffffff80821115611d8057600080fd5b611d8c89838a01611cb4565b94506060880135915080821115611da257600080fd5b611dae89838a01611cb4565b93506080880135915080821115611dc457600080fd5b50611dd188828901611ad2565b9150509295509295909350565b600080600080600060a08688031215611df657600080fd5b611dff86611a43565b9450611e0d60208701611a43565b93506040860135925060608601359150608086013567ffffffffffffffff811115611e3757600080fd5b611dd188828901611ad2565b600060208284031215611e5557600080fd5b61109b82611a43565b60008351611e70818460208801611ba6565b600160fd1b9083019081528351611e8e816001840160208801611ba6565b01600101949350505050565b60208082526034908201527f796f752063616e206368616e676520416374696f6e20726573756c7473206f6e6040820152736c79206f6e2041756374696f6e2073746174757360601b606082015260800190565b600060208284031215611f0057600080fd5b81516007811061109b57600080fd5b634e487b7160e01b600052603260045260246000fd5b634e487b7160e01b600052601160045260246000fd5b600060018201611f4d57611f4d611f25565b5060010190565b600060208284031215611f6657600080fd5b815161109b81611c38565b600060208284031215611f8357600080fd5b5051919050565b8082018082111561051257610512611f25565b808202811582820484141761051257610512611f2556fea2646970667358221220d481c3b03468dccc7c0441717e13d73d4e2e4b465f6a2804f04b1f68f381e9fc64736f6c63430008110033",
  "immutableReferences": {
    "604": [
      {
        "length": 32,
        "start": 713
      },
      {
        "length": 32,
        "start": 1441
      },
      {
        "length": 32,
        "start": 2045
      },
      {
        "length": 32,
        "start": 2193
      },
      {
        "length": 32,
        "start": 2321
      },
      {
        "length": 32,
        "start": 2601
      },
      {
        "length": 32,
        "start": 2933
      },
      {
        "length": 32,
        "start": 3294
      },
      {
        "length": 32,
        "start": 3526
      },
      {
        "length": 32,
        "start": 3866
      },
      {
        "length": 32,
        "start": 4125
      },
      {
        "length": 32,
        "start": 4581
      },
      {
        "length": 32,
        "start": 4843
      },
      {
        "length": 32,
        "start": 5059
      },
      {
        "length": 32,
        "start": 5262
      },
      {
        "length": 32,
        "start": 6154
      }
    ]
  },
  "source": "// SPDX-License-Identifier: MIT\npragma solidity 0.8.17;\n\nimport \"../node_modules/@openzeppelin/contracts/utils/introspection/ERC165.sol\";\nimport \"../node_modules/@openzeppelin/contracts/token/ERC1155/IERC1155Receiver.sol\";\nimport \"../node_modules/@openzeppelin/contracts/utils/Timers.sol\";\nimport \"../node_modules/@openzeppelin/contracts/utils/Context.sol\";\nimport \"../node_modules/@openzeppelin/contracts/utils/math/SafeCast.sol\";\nimport \"../node_modules/@openzeppelin/contracts/utils/Address.sol\";\nimport \"../node_modules/@openzeppelin/contracts/utils/structs/DoubleEndedQueue.sol\";\nimport \"../node_modules/@openzeppelin/contracts/utils/Counters.sol\";\nimport \"../node_modules/@openzeppelin/contracts/access/Ownable.sol\";\nimport \"../node_modules/@openzeppelin/contracts/utils/Strings.sol\";\nimport \"./BacchusVaultERC1155.sol\";\nimport \"./CommonEnums.sol\";\n\ncontract BacchusVaultGovernor is Context, Ownable {\n    struct BottleVoteResults {\n        uint256 bottleId;\n        uint256 sellVotes;\n        uint256 sessionId;\n    }\n    struct BottleAuctionResults {\n        bool sold;\n        uint256 price;\n        uint256 sessionId;\n    }\n\n    using Counters for Counters.Counter;\n\n    // :: ERC1155 smart contract instance ::\n    BacchusVaultERC1155 public immutable bacchusVaultERC1155;\n\n    // :: Selling session Information ::\n    Counters.Counter private _sessionId;\n    SellingSessionStatus public sellingSessionStatus;\n    uint256 public sellingSessionStartDate;\n    // Voting minimum duration\n    uint256 public sellingSessionMinimumDuration;\n\n    // :: Mappings ::\n    mapping(uint256 => mapping(address => uint256)) private voted;\n    // false --> Sell // true --> Hold\n    mapping(uint256 => mapping(address => bool)) private vote;\n    mapping(uint256 => BottleAuctionResults) private auctionResults;\n\n    // :: Lists ::\n    //BottleVoteResults[] private bottleVoteResults;\n    mapping(uint256 => BottleVoteResults) private bottleVoteResults;\n    uint256[] public votedOnBottlesIds;\n    uint256[] private bottlesInReadyToBeSoldStatus;\n\n    constructor(BacchusVaultERC1155 bacchusVaultERC1155Address) {\n        bacchusVaultERC1155 = bacchusVaultERC1155Address;\n        sellingSessionStatus = SellingSessionStatus.Closed;\n    }\n\n    // Closed --> Voting --> Auction\n\n    // Closed --> Voting\n    function _onSetVotingSessionStatusToVoting() external onlyOwner {\n        require(\n            sellingSessionStatus == SellingSessionStatus.Closed,\n            \"SelingSessionStatus != from Closed\"\n        );\n        // Incremenet selling sessionId ( new selling session started )\n        sellingSessionStartDate = block.timestamp;\n        // Change ERC1155 smart contract to Voting status ( block transfers )\n        bacchusVaultERC1155.setVoting(true);\n        sellingSessionStatus = SellingSessionStatus.Voting;\n        _sessionId.increment();\n    }\n\n    function Vote(uint256 bottleId, bool hold) public returns (uint256) {\n        // Session is in voting status\n        require(\n            sellingSessionStatus == SellingSessionStatus.Voting,\n            \" SelingSessionStatus != from Voting \"\n        );\n        // Bottle is in hold status\n        require(\n            bacchusVaultERC1155.getBottleStatus(bottleId) == BottleStatus.Hold,\n            \" You can't vote on bottle not in hold state \"\n        );\n        // ERC1155 is in voting status\n        require(bacchusVaultERC1155.getVoting(), \" ERC1155 Voting is False\");\n        // Voter has not already voted\n        require(\n            voted[bottleId][msg.sender] != _sessionId.current(),\n            \" You have already voted \"\n        );\n        // Voter has some tokens\n        require(\n            bacchusVaultERC1155.balanceOf(msg.sender, bottleId) > 0,\n            \" you should have at least one token to be able to vote \"\n        );\n\n        uint256 weight = bacchusVaultERC1155.balanceOf(msg.sender, bottleId);\n        _vote(bottleId, hold);\n\n        return weight;\n    }\n\n    function _vote(uint256 bottleId, bool hold) internal {\n        voted[bottleId][msg.sender] = _sessionId.current();\n        vote[bottleId][msg.sender] = hold;\n        // delete results of previous voting\n\n        if (bottleVoteResults[bottleId].sessionId != _sessionId.current()) {\n            bottleVoteResults[bottleId].sellVotes = 0;\n            bottleVoteResults[bottleId].sessionId = _sessionId.current();\n            votedOnBottlesIds.push(bottleId);\n        }\n        if (!hold) {\n            bottleVoteResults[bottleId].sellVotes += bacchusVaultERC1155\n                .balanceOf(msg.sender, bottleId);\n        }\n    }\n\n    // Voting --> Auction\n    function _onSetVotingSessionToAuction() external onlyOwner {\n        require(\n            block.timestamp >=\n                sellingSessionStartDate + sellingSessionMinimumDuration,\n            concatenate(\n                \"can't close before timestamp : \",\n                Strings.toString(\n                    sellingSessionStartDate + sellingSessionMinimumDuration\n                )\n            )\n        );\n        require(\n            sellingSessionStatus == SellingSessionStatus.Voting,\n            \"SelingSessionStatus != from Voting\"\n        );\n\n        for (uint256 i; i < votedOnBottlesIds.length; i++) {\n            uint256 bottleId = bottleVoteResults[votedOnBottlesIds[i]].bottleId;\n            if (\n                bottleVoteResults[votedOnBottlesIds[i]].sellVotes * 2 >\n                bacchusVaultERC1155.getMaxSupply(votedOnBottlesIds[i])\n            ) {\n                bacchusVaultERC1155.setBottleStatusToReadyToBeSold(bottleId);\n                bottlesInReadyToBeSoldStatus.push(bottleId);\n            }\n        }\n        sellingSessionStatus = SellingSessionStatus.Auction;\n        bacchusVaultERC1155.setVoting(false);\n        delete votedOnBottlesIds;\n    }\n\n    function addAuctionSell(uint256 bottleId, uint256 price)\n        external\n        onlyOwner\n    {\n        require(\n            sellingSessionStatus == SellingSessionStatus.Auction,\n            \"you can change Action results only on Auction status\"\n        );\n        require(\n            bacchusVaultERC1155.getBottleStatus(bottleId) ==\n                BottleStatus.ReadyToBeSold,\n            \"bottle status != from ReadyToBeSold\"\n        );\n\n        _setAuctionResult(true, bottleId, price, _sessionId.current());\n    }\n\n    function updateAuctionSell(uint256 bottleId, uint256 price)\n        external\n        onlyOwner\n    {\n        require(\n            sellingSessionStatus == SellingSessionStatus.Auction,\n            \"you can change Action results only on Auction status\"\n        );\n        require(\n            bacchusVaultERC1155.getBottleStatus(bottleId) == BottleStatus.Hold,\n            \"bottle status != from Hold\"\n        );\n        require(\n            auctionResults[bottleId].sessionId == _sessionId.current(),\n            \"This selling session is closed\"\n        );\n        _setAuctionResult(true, bottleId, price, _sessionId.current());\n    }\n\n    function deleteAuctionSell(uint256 bottleId) external onlyOwner {\n        require(\n            sellingSessionStatus == SellingSessionStatus.Auction,\n            \"you can change Action results only on Auction status\"\n        );\n        require(\n            bacchusVaultERC1155.getBottleStatus(bottleId) == BottleStatus.Hold,\n            \"bottle status != from Hold\"\n        );\n        require(\n            auctionResults[bottleId].sessionId == _sessionId.current(),\n            \"This selling session is closed\"\n        );\n        _setAuctionResult(false, bottleId, 0, 0);\n    }\n\n    // Auction --> Closed\n    function _onSetVotingSessionToClosed() external onlyOwner {\n        require(\n            sellingSessionStatus == SellingSessionStatus.Auction,\n            \"bottle status != from Auction\"\n        );\n        _sessionId.increment();\n        for (uint256 i; i < bottlesInReadyToBeSoldStatus.length; i++) {\n            uint256 bottleId = bottlesInReadyToBeSoldStatus[i];\n            if (auctionResults[bottleId].sold) {\n                bacchusVaultERC1155.setBottleStatusToSold(bottleId);\n                bacchusVaultERC1155.setBottleActualSellingPrice(\n                    bottleId,\n                    auctionResults[bottleId].price\n                );\n            } else {\n                bacchusVaultERC1155.setBottleStatusToHold(bottleId);\n            }\n        }\n        sellingSessionStatus = SellingSessionStatus.Closed;\n    }\n\n    function onERC1155Received(\n        address,\n        address,\n        uint256,\n        uint256,\n        bytes memory\n    ) public virtual returns (bytes4) {\n        return this.onERC1155Received.selector;\n    }\n\n    /**\n     * @dev See {IERC1155Receiver-onERC1155BatchReceived}.\n     */\n    function onERC1155BatchReceived(\n        address,\n        address,\n        uint256[] memory,\n        uint256[] memory,\n        bytes memory\n    ) public virtual returns (bytes4) {\n        return this.onERC1155BatchReceived.selector;\n    }\n\n    function _setAuctionResult(\n        bool sold,\n        uint256 bottleId,\n        // price is by default in dollar\n        uint256 price,\n        uint256 sessionId\n    ) internal {\n        auctionResults[bottleId].sold = sold;\n        auctionResults[bottleId].price = price;\n        auctionResults[bottleId].sessionId = sessionId;\n    }\n\n    function _setsellingSessionMinimumDuration(\n        uint256 _sellingSessionMinimumDuration\n    ) external onlyOwner {\n        sellingSessionMinimumDuration = _sellingSessionMinimumDuration;\n    }\n\n    function concatenate(string memory a, string memory b)\n        public\n        pure\n        returns (string memory)\n    {\n        return string(bytes.concat(bytes(a), \" \", bytes(b)));\n    }\n\n    // :: GETTERS ::\n\n    function getSellingSessionStatus()\n        public\n        view\n        returns (SellingSessionStatus)\n    {\n        return sellingSessionStatus;\n    }\n\n    function getBottleAuctionResults(uint256 _bottleId)\n        public\n        view\n        returns (BottleAuctionResults memory)\n    {\n        return auctionResults[_bottleId];\n    }\n\n    function getVoted(uint256 _bottleId, address _address)\n        public\n        view\n        returns (bool)\n    {\n        return voted[_bottleId][_address] == _sessionId.current();\n    }\n\n    function getVotedToHold(uint256 _bottleId, address _address)\n        public\n        view\n        returns (bool)\n    {\n        return vote[_bottleId][_address];\n    }\n\n    function deposit() public payable {}\n\n    function getNumberOfSellVotes(uint256 _bottleId)\n        public\n        view\n        returns (uint256)\n    {\n        return bottleVoteResults[_bottleId].sellVotes;\n    }\n}\n",
  "sourcePath": "/home/tehjul/dev/CoursAlyra/BacchusVault/truffle/contracts/BacchusVaultGovernor.sol",
  "compiler": {
    "name": "solc",
    "version": "0.8.17+commit.8df45f5f.Emscripten.clang"
  },
  "schemaVersion": "3.4.10",
  "updatedAt": "2022-12-11T22:38:23.854Z",
  "networkType": "ethereum",
  "devdoc": {
    "kind": "dev",
    "methods": {
      "onERC1155BatchReceived(address,address,uint256[],uint256[],bytes)": {
        "details": "See {IERC1155Receiver-onERC1155BatchReceived}."
      },
      "owner()": {
        "details": "Returns the address of the current owner."
      },
      "renounceOwnership()": {
        "details": "Leaves the contract without owner. It will not be possible to call `onlyOwner` functions anymore. Can only be called by the current owner. NOTE: Renouncing ownership will leave the contract without an owner, thereby removing any functionality that is only available to the owner."
      },
      "transferOwnership(address)": {
        "details": "Transfers ownership of the contract to a new account (`newOwner`). Can only be called by the current owner."
      }
    },
    "version": 1
  },
  "userdoc": {
    "kind": "user",
    "methods": {},
    "version": 1
  }
}