{
  "contractName": "BacchusVaultGovernance",
  "abi": [
    {
      "inputs": [
        {
          "internalType": "contract ERC1155",
          "name": "_tokenaddress",
          "type": "address"
        }
      ],
      "stateMutability": "nonpayable",
      "type": "constructor"
    },
    {
      "inputs": [],
      "name": "Empty",
      "type": "error"
    },
    {
      "anonymous": false,
      "inputs": [
        {
          "indexed": false,
          "internalType": "uint256",
          "name": "proposalId",
          "type": "uint256"
        }
      ],
      "name": "ProposalCanceled",
      "type": "event"
    },
    {
      "anonymous": false,
      "inputs": [
        {
          "indexed": false,
          "internalType": "uint256",
          "name": "proposalId",
          "type": "uint256"
        },
        {
          "indexed": false,
          "internalType": "address",
          "name": "proposer",
          "type": "address"
        },
        {
          "indexed": false,
          "internalType": "address[]",
          "name": "targets",
          "type": "address[]"
        },
        {
          "indexed": false,
          "internalType": "uint256[]",
          "name": "values",
          "type": "uint256[]"
        },
        {
          "indexed": false,
          "internalType": "string[]",
          "name": "signatures",
          "type": "string[]"
        },
        {
          "indexed": false,
          "internalType": "bytes[]",
          "name": "calldatas",
          "type": "bytes[]"
        },
        {
          "indexed": false,
          "internalType": "uint256",
          "name": "startBlock",
          "type": "uint256"
        },
        {
          "indexed": false,
          "internalType": "uint256",
          "name": "endBlock",
          "type": "uint256"
        },
        {
          "indexed": false,
          "internalType": "string",
          "name": "description",
          "type": "string"
        }
      ],
      "name": "ProposalCreated",
      "type": "event"
    },
    {
      "anonymous": false,
      "inputs": [
        {
          "indexed": false,
          "internalType": "uint256",
          "name": "proposalId",
          "type": "uint256"
        }
      ],
      "name": "ProposalExecuted",
      "type": "event"
    },
    {
      "anonymous": false,
      "inputs": [
        {
          "indexed": false,
          "internalType": "uint256",
          "name": "oldProposalThreshold",
          "type": "uint256"
        },
        {
          "indexed": false,
          "internalType": "uint256",
          "name": "newProposalThreshold",
          "type": "uint256"
        }
      ],
      "name": "ProposalThresholdSet",
      "type": "event"
    },
    {
      "anonymous": false,
      "inputs": [
        {
          "indexed": true,
          "internalType": "address",
          "name": "voter",
          "type": "address"
        },
        {
          "indexed": false,
          "internalType": "uint256",
          "name": "proposalId",
          "type": "uint256"
        },
        {
          "indexed": false,
          "internalType": "uint8",
          "name": "support",
          "type": "uint8"
        },
        {
          "indexed": false,
          "internalType": "uint256",
          "name": "weight",
          "type": "uint256"
        },
        {
          "indexed": false,
          "internalType": "string",
          "name": "reason",
          "type": "string"
        }
      ],
      "name": "VoteCast",
      "type": "event"
    },
    {
      "anonymous": false,
      "inputs": [
        {
          "indexed": true,
          "internalType": "address",
          "name": "voter",
          "type": "address"
        },
        {
          "indexed": false,
          "internalType": "uint256",
          "name": "proposalId",
          "type": "uint256"
        },
        {
          "indexed": false,
          "internalType": "uint8",
          "name": "support",
          "type": "uint8"
        },
        {
          "indexed": false,
          "internalType": "uint256",
          "name": "weight",
          "type": "uint256"
        },
        {
          "indexed": false,
          "internalType": "string",
          "name": "reason",
          "type": "string"
        },
        {
          "indexed": false,
          "internalType": "bytes",
          "name": "params",
          "type": "bytes"
        }
      ],
      "name": "VoteCastWithParams",
      "type": "event"
    },
    {
      "anonymous": false,
      "inputs": [
        {
          "indexed": false,
          "internalType": "uint256",
          "name": "oldVotingDelay",
          "type": "uint256"
        },
        {
          "indexed": false,
          "internalType": "uint256",
          "name": "newVotingDelay",
          "type": "uint256"
        }
      ],
      "name": "VotingDelaySet",
      "type": "event"
    },
    {
      "anonymous": false,
      "inputs": [
        {
          "indexed": false,
          "internalType": "uint256",
          "name": "oldVotingPeriod",
          "type": "uint256"
        },
        {
          "indexed": false,
          "internalType": "uint256",
          "name": "newVotingPeriod",
          "type": "uint256"
        }
      ],
      "name": "VotingPeriodSet",
      "type": "event"
    },
    {
      "inputs": [
        {
          "internalType": "uint256",
          "name": "proposalId",
          "type": "uint256"
        },
        {
          "internalType": "uint8",
          "name": "support",
          "type": "uint8"
        }
      ],
      "name": "castVote",
      "outputs": [
        {
          "internalType": "uint256",
          "name": "",
          "type": "uint256"
        }
      ],
      "stateMutability": "nonpayable",
      "type": "function"
    },
    {
      "inputs": [
        {
          "internalType": "uint256",
          "name": "proposalId",
          "type": "uint256"
        },
        {
          "internalType": "uint8",
          "name": "support",
          "type": "uint8"
        },
        {
          "internalType": "string",
          "name": "reason",
          "type": "string"
        }
      ],
      "name": "castVoteWithReason",
      "outputs": [
        {
          "internalType": "uint256",
          "name": "",
          "type": "uint256"
        }
      ],
      "stateMutability": "nonpayable",
      "type": "function"
    },
    {
      "inputs": [
        {
          "internalType": "uint256",
          "name": "proposalId",
          "type": "uint256"
        },
        {
          "internalType": "uint8",
          "name": "support",
          "type": "uint8"
        },
        {
          "internalType": "string",
          "name": "reason",
          "type": "string"
        },
        {
          "internalType": "bytes",
          "name": "params",
          "type": "bytes"
        }
      ],
      "name": "castVoteWithReasonAndParams",
      "outputs": [
        {
          "internalType": "uint256",
          "name": "",
          "type": "uint256"
        }
      ],
      "stateMutability": "nonpayable",
      "type": "function"
    },
    {
      "inputs": [
        {
          "internalType": "address[]",
          "name": "targets",
          "type": "address[]"
        },
        {
          "internalType": "uint256[]",
          "name": "values",
          "type": "uint256[]"
        },
        {
          "internalType": "bytes[]",
          "name": "calldatas",
          "type": "bytes[]"
        },
        {
          "internalType": "bytes32",
          "name": "descriptionHash",
          "type": "bytes32"
        }
      ],
      "name": "execute",
      "outputs": [
        {
          "internalType": "uint256",
          "name": "",
          "type": "uint256"
        }
      ],
      "stateMutability": "payable",
      "type": "function"
    },
    {
      "inputs": [
        {
          "internalType": "address",
          "name": "account",
          "type": "address"
        },
        {
          "internalType": "uint256",
          "name": "blockNumber",
          "type": "uint256"
        },
        {
          "internalType": "bytes",
          "name": "params",
          "type": "bytes"
        }
      ],
      "name": "getVotesWithParams",
      "outputs": [
        {
          "internalType": "uint256",
          "name": "",
          "type": "uint256"
        }
      ],
      "stateMutability": "view",
      "type": "function"
    },
    {
      "inputs": [
        {
          "internalType": "uint256",
          "name": "proposalId",
          "type": "uint256"
        },
        {
          "internalType": "address",
          "name": "account",
          "type": "address"
        }
      ],
      "name": "hasVoted",
      "outputs": [
        {
          "internalType": "bool",
          "name": "",
          "type": "bool"
        }
      ],
      "stateMutability": "view",
      "type": "function"
    },
    {
      "inputs": [
        {
          "internalType": "address[]",
          "name": "targets",
          "type": "address[]"
        },
        {
          "internalType": "uint256[]",
          "name": "values",
          "type": "uint256[]"
        },
        {
          "internalType": "bytes[]",
          "name": "calldatas",
          "type": "bytes[]"
        },
        {
          "internalType": "bytes32",
          "name": "descriptionHash",
          "type": "bytes32"
        }
      ],
      "name": "hashProposal",
      "outputs": [
        {
          "internalType": "uint256",
          "name": "",
          "type": "uint256"
        }
      ],
      "stateMutability": "pure",
      "type": "function"
    },
    {
      "inputs": [],
      "name": "name",
      "outputs": [
        {
          "internalType": "string",
          "name": "",
          "type": "string"
        }
      ],
      "stateMutability": "view",
      "type": "function"
    },
    {
      "inputs": [
        {
          "internalType": "address",
          "name": "",
          "type": "address"
        },
        {
          "internalType": "address",
          "name": "",
          "type": "address"
        },
        {
          "internalType": "uint256[]",
          "name": "",
          "type": "uint256[]"
        },
        {
          "internalType": "uint256[]",
          "name": "",
          "type": "uint256[]"
        },
        {
          "internalType": "bytes",
          "name": "",
          "type": "bytes"
        }
      ],
      "name": "onERC1155BatchReceived",
      "outputs": [
        {
          "internalType": "bytes4",
          "name": "",
          "type": "bytes4"
        }
      ],
      "stateMutability": "nonpayable",
      "type": "function"
    },
    {
      "inputs": [
        {
          "internalType": "address",
          "name": "",
          "type": "address"
        },
        {
          "internalType": "address",
          "name": "",
          "type": "address"
        },
        {
          "internalType": "uint256",
          "name": "",
          "type": "uint256"
        },
        {
          "internalType": "uint256",
          "name": "",
          "type": "uint256"
        },
        {
          "internalType": "bytes",
          "name": "",
          "type": "bytes"
        }
      ],
      "name": "onERC1155Received",
      "outputs": [
        {
          "internalType": "bytes4",
          "name": "",
          "type": "bytes4"
        }
      ],
      "stateMutability": "nonpayable",
      "type": "function"
    },
    {
      "inputs": [
        {
          "internalType": "uint256",
          "name": "proposalId",
          "type": "uint256"
        }
      ],
      "name": "proposalDeadline",
      "outputs": [
        {
          "internalType": "uint256",
          "name": "",
          "type": "uint256"
        }
      ],
      "stateMutability": "view",
      "type": "function"
    },
    {
      "inputs": [
        {
          "internalType": "uint256",
          "name": "proposalId",
          "type": "uint256"
        }
      ],
      "name": "proposalSnapshot",
      "outputs": [
        {
          "internalType": "uint256",
          "name": "",
          "type": "uint256"
        }
      ],
      "stateMutability": "view",
      "type": "function"
    },
    {
      "inputs": [
        {
          "internalType": "uint256",
          "name": "proposalId",
          "type": "uint256"
        }
      ],
      "name": "proposalVotes",
      "outputs": [
        {
          "internalType": "uint256",
          "name": "againstVotes",
          "type": "uint256"
        },
        {
          "internalType": "uint256",
          "name": "forVotes",
          "type": "uint256"
        },
        {
          "internalType": "uint256",
          "name": "abstainVotes",
          "type": "uint256"
        }
      ],
      "stateMutability": "view",
      "type": "function"
    },
    {
      "inputs": [
        {
          "internalType": "uint256",
          "name": "newProposalThreshold",
          "type": "uint256"
        }
      ],
      "name": "setProposalThreshold",
      "outputs": [],
      "stateMutability": "nonpayable",
      "type": "function"
    },
    {
      "inputs": [
        {
          "internalType": "uint256",
          "name": "newVotingDelay",
          "type": "uint256"
        }
      ],
      "name": "setVotingDelay",
      "outputs": [],
      "stateMutability": "nonpayable",
      "type": "function"
    },
    {
      "inputs": [
        {
          "internalType": "uint256",
          "name": "newVotingPeriod",
          "type": "uint256"
        }
      ],
      "name": "setVotingPeriod",
      "outputs": [],
      "stateMutability": "nonpayable",
      "type": "function"
    },
    {
      "inputs": [],
      "name": "token",
      "outputs": [
        {
          "internalType": "contract ERC1155",
          "name": "",
          "type": "address"
        }
      ],
      "stateMutability": "view",
      "type": "function"
    },
    {
      "inputs": [],
      "name": "votingDelay",
      "outputs": [
        {
          "internalType": "uint256",
          "name": "",
          "type": "uint256"
        }
      ],
      "stateMutability": "pure",
      "type": "function"
    },
    {
      "inputs": [],
      "name": "votingPeriod",
      "outputs": [
        {
          "internalType": "uint256",
          "name": "",
          "type": "uint256"
        }
      ],
      "stateMutability": "pure",
      "type": "function"
    },
    {
      "inputs": [],
      "name": "proposalThreshold",
      "outputs": [
        {
          "internalType": "uint256",
          "name": "",
          "type": "uint256"
        }
      ],
      "stateMutability": "pure",
      "type": "function"
    },
    {
      "inputs": [
        {
          "internalType": "address",
          "name": "account",
          "type": "address"
        },
        {
          "internalType": "uint256",
          "name": "blockNumber",
          "type": "uint256"
        }
      ],
      "name": "getVotes",
      "outputs": [
        {
          "internalType": "uint256",
          "name": "",
          "type": "uint256"
        }
      ],
      "stateMutability": "view",
      "type": "function"
    },
    {
      "inputs": [
        {
          "internalType": "uint256",
          "name": "proposalId",
          "type": "uint256"
        }
      ],
      "name": "state",
      "outputs": [
        {
          "internalType": "enum IBacchusVaultGovernor.ProposalState",
          "name": "",
          "type": "uint8"
        }
      ],
      "stateMutability": "view",
      "type": "function"
    },
    {
      "inputs": [
        {
          "internalType": "address[]",
          "name": "targets",
          "type": "address[]"
        },
        {
          "internalType": "uint256[]",
          "name": "values",
          "type": "uint256[]"
        },
        {
          "internalType": "bytes[]",
          "name": "calldatas",
          "type": "bytes[]"
        },
        {
          "internalType": "string",
          "name": "description",
          "type": "string"
        }
      ],
      "name": "propose",
      "outputs": [
        {
          "internalType": "uint256",
          "name": "",
          "type": "uint256"
        }
      ],
      "stateMutability": "nonpayable",
      "type": "function"
    },
    {
      "inputs": [
        {
          "internalType": "bytes4",
          "name": "interfaceId",
          "type": "bytes4"
        }
      ],
      "name": "supportsInterface",
      "outputs": [
        {
          "internalType": "bool",
          "name": "",
          "type": "bool"
        }
      ],
      "stateMutability": "view",
      "type": "function"
    }
  ],
  "bytecode": "0x60a06040523480156200001157600080fd5b5060405162002528380380620025288339810160408190526200003491620001e5565b80600161c4e060006040518060400160405280601681526020017f42616363687573205661756c7420476f7665726e6f72000000000000000000008152508060009081620000839190620002bc565b5062000091905083620000bd565b6200009c82620000fe565b620000a781620001a4565b5050506001600160a01b03166080525062000388565b60045460408051918252602082018390527fc565b045403dc03c2eea82b81a0465edad9e2e7fc4d97e11421c209da93d7a93910160405180910390a1600455565b60008111620001635760405162461bcd60e51b815260206004820152602760248201527f476f7665726e6f7253657474696e67733a20766f74696e6720706572696f6420604482015266746f6f206c6f7760c81b606482015260840160405180910390fd5b60055460408051918252602082018390527f7e3f7f0708a84de9203036abaa450dccc85ad5ff52f78c170f3edb55cf5e8828910160405180910390a1600555565b60065460408051918252602082018390527fccb45da8d5717e6c4544694297c4ba5cf151d455c9bb0ed4fc7a38411bc05461910160405180910390a1600655565b600060208284031215620001f857600080fd5b81516001600160a01b03811681146200021057600080fd5b9392505050565b634e487b7160e01b600052604160045260246000fd5b600181811c908216806200024257607f821691505b6020821081036200026357634e487b7160e01b600052602260045260246000fd5b50919050565b601f821115620002b757600081815260208120601f850160051c81016020861015620002925750805b601f850160051c820191505b81811015620002b3578281556001016200029e565b5050505b505050565b81516001600160401b03811115620002d857620002d862000217565b620002f081620002e984546200022d565b8462000269565b602080601f8311600181146200032857600084156200030f5750858301515b600019600386901b1c1916600185901b178555620002b3565b600085815260208120601f198616915b82811015620003595788860151825594840194600190910190840162000338565b5085821015620003785787850151600019600388901b60f8161c191681555b5050505050600190811b01905550565b60805161217d620003ab600039600081816104d3015261106d015261217d6000f3fe60806040526004361061014b5760003560e01c80637b3c71d3116100b6578063c59057e41161006f578063c59057e414610415578063ea0217cf14610435578063eb9019d414610455578063ece40cc114610475578063f23a6e6114610495578063fc0c546a146104c157600080fd5b80637b3c71d31461033c5780637d5e81e21461035c5780639a802a6d1461037c578063b58131b01461039c578063bc197c81146103b0578063c01f9e37146103f557600080fd5b80633e4f49e6116101085780633e4f49e61461020e578063438596321461023b578063544ffc9c1461028557806356781388146102da5780635f398a14146102fa57806370b0f6601461031a57600080fd5b806301ffc9a71461015057806302a251a31461018557806306fdde03146101a45780632656227d146101c65780632d63f693146101d95780633932abb1146101f9575b600080fd5b34801561015c57600080fd5b5061017061016b36600461158b565b61050d565b60405190151581526020015b60405180910390f35b34801561019157600080fd5b5061b3cb5b60405190815260200161017c565b3480156101b057600080fd5b506101b961051e565b60405161017c9190611605565b6101966101d4366004611860565b6105b0565b3480156101e557600080fd5b506101966101f43660046118ef565b6106dc565b34801561020557600080fd5b506119af610196565b34801561021a57600080fd5b5061022e6102293660046118ef565b610713565b60405161017c919061191e565b34801561024757600080fd5b50610170610256366004611946565b60008281526007602090815260408083206001600160a01b038516845260030190915290205460ff1692915050565b34801561029157600080fd5b506102bf6102a03660046118ef565b6000908152600760205260409020805460018201546002909201549092565b6040805193845260208401929092529082015260600161017c565b3480156102e657600080fd5b506101966102f5366004611983565b61071e565b34801561030657600080fd5b506101966103153660046119ee565b610747565b34801561032657600080fd5b5061033a6103353660046118ef565b61079c565b005b34801561034857600080fd5b50610196610357366004611a71565b6107de565b34801561036857600080fd5b50610196610377366004611aca565b610830565b34801561038857600080fd5b50610196610397366004611b8a565b610847565b3480156103a857600080fd5b506000610196565b3480156103bc57600080fd5b506103dc6103cb366004611be0565b63bc197c8160e01b95945050505050565b6040516001600160e01b0319909116815260200161017c565b34801561040157600080fd5b506101966104103660046118ef565b61085e565b34801561042157600080fd5b50610196610430366004611860565b61088d565b34801561044157600080fd5b5061033a6104503660046118ef565b6108c7565b34801561046157600080fd5b50610196610470366004611c6f565b610906565b34801561048157600080fd5b5061033a6104903660046118ef565b610912565b3480156104a157600080fd5b506103dc6104b0366004611c99565b63f23a6e6160e01b95945050505050565b3480156104cd57600080fd5b506104f57f000000000000000000000000000000000000000000000000000000000000000081565b6040516001600160a01b03909116815260200161017c565b600061051882610951565b92915050565b60606000805461052d90611cfd565b80601f016020809104026020016040519081016040528092919081815260200182805461055990611cfd565b80156105a65780601f1061057b576101008083540402835291602001916105a6565b820191906000526020600020905b81548152906001019060200180831161058957829003601f168201915b5050505050905090565b6000806105bf8686868661088d565b905060006105cc82610713565b905060048160078111156105e2576105e2611908565b14806105ff575060058160078111156105fd576105fd611908565b145b61065a5760405162461bcd60e51b815260206004820152602160248201527f476f7665726e6f723a2070726f706f73616c206e6f74207375636365737366756044820152601b60fa1b60648201526084015b60405180910390fd5b600082815260016020818152604092839020600201805460ff191690921790915590518381527f712ae1383f79ac853f8d882153778e0260ef8f03b504e2866e0593e04d2b291f910160405180910390a16106b882888888886109a2565b6106c58288888888610a2f565b6106d282888888886109a2565b5095945050505050565b60008181526001602090815260408083208151928301909152546001600160401b0316908190525b6001600160401b031692915050565b600061051882610a3c565b60008033905061073f84828560405180602001604052806000815250610b4b565b949350505050565b60008033905061079187828888888080601f0160208091040260200160405190810160405280939291908181526020018383808284376000920191909152508a9250610b69915050565b979650505050505050565b3330146107bb5760405162461bcd60e51b815260040161065190611d37565b6107d2565b806107cb6002610cce565b036107c057505b6107db81610d4d565b50565b60008033905061082686828787878080601f016020809104026020016040519081016040528093929190818152602001838380828437600092019190915250610b4b92505050565b9695505050505050565b600061083e85858585610d8e565b95945050505050565b6000610854848484611045565b90505b9392505050565b60008181526001602081815260408084208151928301909152909101546001600160401b031690819052610704565b6000848484846040516020016108a69493929190611e37565b60408051601f19818403018152919052805160209091012095945050505050565b3330146108e65760405162461bcd60e51b815260040161065190611d37565b6108fd565b806108f66002610cce565b036108eb57505b6107db816110d9565b6000610857838361117a565b3330146109315760405162461bcd60e51b815260040161065190611d37565b610948565b806109416002610cce565b0361093657505b6107db8161119b565b60006001600160e01b031982166330074b7160e01b148061098257506001600160e01b03198216631eb7dd6160e31b145b8061051857506001600160e01b03198216630271189760e51b1492915050565b610a28565b8451811015610a2657306001600160a01b03168582815181106109cc576109cc611e82565b60200260200101516001600160a01b031603610a1657610a168382815181106109f7576109f7611e82565b60200260200101518051906020012060026111dc90919063ffffffff16565b610a1f81611eae565b90506109a7565b505b5050505050565b610a288585858585611218565b6000818152600160205260408120600281015460ff1615610a605750600792915050565b6002810154610100900460ff1615610a7b5750600292915050565b6000610a86846106dc565b905080600003610ad85760405162461bcd60e51b815260206004820152601d60248201527f476f7665726e6f723a20756e6b6e6f776e2070726f706f73616c2069640000006044820152606401610651565b438110610ae9575060009392505050565b6000610af48561085e565b9050438110610b0857506001949350505050565b610b1185611317565b8015610b30575060008581526007602052604090208054600190910154115b15610b4057506004949350505050565b506003949350505050565b600061083e85858585610b6960408051602081019091526000815290565b6000858152600160208190526040822090610b8388610713565b6007811115610b9457610b94611908565b14610bed5760405162461bcd60e51b815260206004820152602360248201527f476f7665726e6f723a20766f7465206e6f742063757272656e746c792061637460448201526269766560e81b6064820152608401610651565b604080516020810190915281546001600160401b031690819052600090610c1690889086611045565b9050610c258888888488611367565b8351600003610c7a57866001600160a01b03167fb8e138887d0aa13bab447e82de9d5c1777041ecd21ca36ba824ff1e6c07ddda489888489604051610c6d9493929190611ec7565b60405180910390a2610791565b866001600160a01b03167fe2babfbac5889a709b63bb7f598b324e08bc5a4fb9ec647fb3cbc9ec07eb87128988848989604051610cbb959493929190611eef565b60405180910390a2979650505050505050565b6000610ce98254600f81810b600160801b909204900b131590565b15610d0757604051631ed9509560e11b815260040160405180910390fd5b508054600f0b6000818152600180840160205260408220805492905583546fffffffffffffffffffffffffffffffff191692016001600160801b03169190911790915590565b60045460408051918252602082018390527fc565b045403dc03c2eea82b81a0465edad9e2e7fc4d97e11421c209da93d7a93910160405180910390a1600455565b600080610da033610470600143611f35565b1015610e085760405162461bcd60e51b815260206004820152603160248201527f476f7665726e6f723a2070726f706f73657220766f7465732062656c6f7720706044820152701c9bdc1bdcd85b081d1a1c995cda1bdb19607a1b6064820152608401610651565b6000610e1d868686868051906020012061088d565b90508451865114610e405760405162461bcd60e51b815260040161065190611f48565b8351865114610e615760405162461bcd60e51b815260040161065190611f48565b6000865111610eb25760405162461bcd60e51b815260206004820152601860248201527f476f7665726e6f723a20656d7074792070726f706f73616c00000000000000006044820152606401610651565b600081815260016020908152604091829020825191820190925281546001600160401b03169081905215610f325760405162461bcd60e51b815260206004820152602160248201527f476f7665726e6f723a2070726f706f73616c20616c72656164792065786973746044820152607360f81b6064820152608401610651565b6000610f3f6119af6114e1565b610f48436114e1565b610f529190611f89565b90506000610f6161b3cb6114e1565b610f6b9083611f89565b835467ffffffffffffffff19166001600160401b038416178455905060018301805467ffffffffffffffff19166001600160401b0383161790557f7d84a6263ae0d98d3329bd7b46bb4e8d6f98cd35a7adb45c274c8b7fd5ebd5e084338b8b8d516001600160401b03811115610fe357610fe3611618565b60405190808252806020026020018201604052801561101657816020015b60608152602001906001900390816110015790505b508c88888e60405161103099989796959493929190611fb0565b60405180910390a15091979650505050505050565b604051627eeac760e11b81526001600160a01b038481166004830152602482018490526000917f00000000000000000000000000000000000000000000000000000000000000009091169062fdd58e90604401602060405180830381865afa1580156110b5573d6000803e3d6000fd5b505050506040513d601f19601f82011682018060405250810190610854919061209f565b600081116111395760405162461bcd60e51b815260206004820152602760248201527f476f7665726e6f7253657474696e67733a20766f74696e6720706572696f6420604482015266746f6f206c6f7760c81b6064820152608401610651565b60055460408051918252602082018390527f7e3f7f0708a84de9203036abaa450dccc85ad5ff52f78c170f3edb55cf5e8828910160405180910390a1600555565b6000610857838361119660408051602081019091526000815290565b611045565b60065460408051918252602082018390527fccb45da8d5717e6c4544694297c4ba5cf151d455c9bb0ed4fc7a38411bc05461910160405180910390a1600655565b8154600160801b90819004600f0b6000818152600180860160205260409091209390935583546001600160801b03908116939091011602179055565b600060405180606001604052806027815260200161212160279139905060005b855181101561130e5760008087838151811061125657611256611e82565b60200260200101516001600160a01b031687848151811061127957611279611e82565b602002602001015187858151811061129357611293611e82565b60200260200101516040516112a891906120b8565b60006040518083038185875af1925050503d80600081146112e5576040519150601f19603f3d011682016040523d82523d6000602084013e6112ea565b606091505b50915091506112fa82828661154d565b5050508061130790611eae565b9050611238565b50505050505050565b600081815260076020526040812081612710611332856106dc565b61133e90610fa06120d4565b61134891906120eb565b90508160020154826001015461135e919061210d565b10159392505050565b60008581526007602090815260408083206001600160a01b0388168452600381019092529091205460ff16156113ef5760405162461bcd60e51b815260206004820152602760248201527f476f7665726e6f72566f74696e6753696d706c653a20766f746520616c726561604482015266191e4818d85cdd60ca1b6064820152608401610651565b6001600160a01b03851660009081526003820160205260409020805460ff1916600117905560ff841661143b5782816000016000828254611430919061210d565b90915550610a269050565b60001960ff85160161145b5782816001016000828254611430919061210d565b60011960ff85160161147b5782816002016000828254611430919061210d565b60405162461bcd60e51b815260206004820152603560248201527f476f7665726e6f72566f74696e6753696d706c653a20696e76616c69642076616044820152746c756520666f7220656e756d20566f74655479706560581b6064820152608401610651565b60006001600160401b038211156115495760405162461bcd60e51b815260206004820152602660248201527f53616665436173743a2076616c756520646f65736e27742066697420696e203660448201526534206269747360d01b6064820152608401610651565b5090565b6060831561155c575081610857565b61085783838151156115715781518083602001fd5b8060405162461bcd60e51b81526004016106519190611605565b60006020828403121561159d57600080fd5b81356001600160e01b03198116811461085757600080fd5b60005b838110156115d05781810151838201526020016115b8565b50506000910152565b600081518084526115f18160208601602086016115b5565b601f01601f19169290920160200192915050565b60208152600061085760208301846115d9565b634e487b7160e01b600052604160045260246000fd5b604051601f8201601f191681016001600160401b038111828210171561165657611656611618565b604052919050565b60006001600160401b0382111561167757611677611618565b5060051b60200190565b80356001600160a01b038116811461169857600080fd5b919050565b600082601f8301126116ae57600080fd5b813560206116c36116be8361165e565b61162e565b82815260059290921b840181019181810190868411156116e257600080fd5b8286015b84811015611704576116f781611681565b83529183019183016116e6565b509695505050505050565b600082601f83011261172057600080fd5b813560206117306116be8361165e565b82815260059290921b8401810191818101908684111561174f57600080fd5b8286015b848110156117045780358352918301918301611753565b60006001600160401b0383111561178357611783611618565b611796601f8401601f191660200161162e565b90508281528383830111156117aa57600080fd5b828260208301376000602084830101529392505050565b600082601f8301126117d257600080fd5b6108578383356020850161176a565b600082601f8301126117f257600080fd5b813560206118026116be8361165e565b82815260059290921b8401810191818101908684111561182157600080fd5b8286015b848110156117045780356001600160401b038111156118445760008081fd5b6118528986838b01016117c1565b845250918301918301611825565b6000806000806080858703121561187657600080fd5b84356001600160401b038082111561188d57600080fd5b6118998883890161169d565b955060208701359150808211156118af57600080fd5b6118bb8883890161170f565b945060408701359150808211156118d157600080fd5b506118de878288016117e1565b949793965093946060013593505050565b60006020828403121561190157600080fd5b5035919050565b634e487b7160e01b600052602160045260246000fd5b602081016008831061194057634e487b7160e01b600052602160045260246000fd5b91905290565b6000806040838503121561195957600080fd5b8235915061196960208401611681565b90509250929050565b803560ff8116811461169857600080fd5b6000806040838503121561199657600080fd5b8235915061196960208401611972565b60008083601f8401126119b857600080fd5b5081356001600160401b038111156119cf57600080fd5b6020830191508360208285010111156119e757600080fd5b9250929050565b600080600080600060808688031215611a0657600080fd5b85359450611a1660208701611972565b935060408601356001600160401b0380821115611a3257600080fd5b611a3e89838a016119a6565b90955093506060880135915080821115611a5757600080fd5b50611a64888289016117c1565b9150509295509295909350565b60008060008060608587031215611a8757600080fd5b84359350611a9760208601611972565b925060408501356001600160401b03811115611ab257600080fd5b611abe878288016119a6565b95989497509550505050565b60008060008060808587031215611ae057600080fd5b84356001600160401b0380821115611af757600080fd5b611b038883890161169d565b95506020870135915080821115611b1957600080fd5b611b258883890161170f565b94506040870135915080821115611b3b57600080fd5b611b47888389016117e1565b93506060870135915080821115611b5d57600080fd5b508501601f81018713611b6f57600080fd5b611b7e8782356020840161176a565b91505092959194509250565b600080600060608486031215611b9f57600080fd5b611ba884611681565b92506020840135915060408401356001600160401b03811115611bca57600080fd5b611bd6868287016117c1565b9150509250925092565b600080600080600060a08688031215611bf857600080fd5b611c0186611681565b9450611c0f60208701611681565b935060408601356001600160401b0380821115611c2b57600080fd5b611c3789838a0161170f565b94506060880135915080821115611c4d57600080fd5b611c5989838a0161170f565b93506080880135915080821115611a5757600080fd5b60008060408385031215611c8257600080fd5b611c8b83611681565b946020939093013593505050565b600080600080600060a08688031215611cb157600080fd5b611cba86611681565b9450611cc860208701611681565b9350604086013592506060860135915060808601356001600160401b03811115611cf157600080fd5b611a64888289016117c1565b600181811c90821680611d1157607f821691505b602082108103611d3157634e487b7160e01b600052602260045260246000fd5b50919050565b60208082526018908201527f476f7665726e6f723a206f6e6c79476f7665726e616e63650000000000000000604082015260600190565b600081518084526020808501945080840160005b83811015611da75781516001600160a01b031687529582019590820190600101611d82565b509495945050505050565b600081518084526020808501945080840160005b83811015611da757815187529582019590820190600101611dc6565b600081518084526020808501808196508360051b8101915082860160005b85811015611e2a578284038952611e188483516115d9565b98850198935090840190600101611e00565b5091979650505050505050565b608081526000611e4a6080830187611d6e565b8281036020840152611e5c8187611db2565b90508281036040840152611e708186611de2565b91505082606083015295945050505050565b634e487b7160e01b600052603260045260246000fd5b634e487b7160e01b600052601160045260246000fd5b600060018201611ec057611ec0611e98565b5060010190565b84815260ff8416602082015282604082015260806060820152600061082660808301846115d9565b85815260ff8516602082015283604082015260a060608201526000611f1760a08301856115d9565b8281036080840152611f2981856115d9565b98975050505050505050565b8181038181111561051857610518611e98565b60208082526021908201527f476f7665726e6f723a20696e76616c69642070726f706f73616c206c656e67746040820152600d60fb1b606082015260800190565b6001600160401b03818116838216019080821115611fa957611fa9611e98565b5092915050565b60006101208b8352602060018060a01b038c1681850152816040850152611fd98285018c611d6e565b91508382036060850152611fed828b611db2565b915083820360808501528189518084528284019150828160051b850101838c0160005b8381101561203e57601f1987840301855261202c8383516115d9565b94860194925090850190600101612010565b505086810360a0880152612052818c611de2565b94505050505061206d60c08401876001600160401b03169052565b6001600160401b03851660e084015282810361010084015261208f81856115d9565b9c9b505050505050505050505050565b6000602082840312156120b157600080fd5b5051919050565b600082516120ca8184602087016115b5565b9190910192915050565b808202811582820484141761051857610518611e98565b60008261210857634e487b7160e01b600052601260045260246000fd5b500490565b8082018082111561051857610518611e9856fe476f7665726e6f723a2063616c6c20726576657274656420776974686f7574206d657373616765a2646970667358221220eb65f84ab805ac4ccea83789ee42eb49fc4cef72af9bcb5f306400a45327e55864736f6c63430008110033",
  "immutableReferences": {
    "3249": [
      {
        "length": 32,
        "start": 1235
      },
      {
        "length": 32,
        "start": 4205
      }
    ]
  },
  "source": "// SPDX-License-Identifier: MIT\npragma solidity 0.8.17;\n\nimport \"../../node_modules/@openzeppelin/contracts/token/ERC1155/ERC1155.sol\";\n\nimport \"./BacchusVaultGovernor.sol\";\nimport \"./BacchusVaultGovernorSettings.sol\";\nimport \"./BacchusVaultGovernorVotes.sol\";\nimport \"./BacchusVaultGovernorCounting.sol\";\n\ncontract BacchusVaultGovernance is\n    BacchusVaultGovernor,\n    BacchusVaultGovernorSettings,\n    BacchusVaultGovernorVotes,\n    BacchusVaultGovernorCounting\n{\n    constructor(ERC1155 _tokenaddress)\n        BacchusVaultGovernor(\"Bacchus Vault Governor\")\n        BacchusVaultGovernorVotes(_tokenaddress)\n        BacchusVaultGovernorSettings(1, 50400, 0)\n    {}\n\n    function votingDelay()\n        public\n        pure\n        override(IBacchusVaultGovernor, BacchusVaultGovernorSettings)\n        returns (uint256)\n    {\n        return 6575; // 1 day\n    }\n\n    function votingPeriod()\n        public\n        pure\n        override(IBacchusVaultGovernor, BacchusVaultGovernorSettings)\n        returns (uint256)\n    {\n        return 46027; // 1 week\n    }\n\n    function proposalThreshold()\n        public\n        pure\n        override(BacchusVaultGovernor, BacchusVaultGovernorSettings)\n        returns (uint256)\n    {\n        return 0;\n    }\n\n    function getVotes(address account, uint256 blockNumber)\n        public\n        view\n        override\n        returns (uint256)\n    {\n        return super.getVotes(account, blockNumber);\n    }\n\n    function state(uint256 proposalId)\n        public\n        view\n        override\n        returns (ProposalState)\n    {\n        return super.state(proposalId);\n    }\n\n    function propose(\n        address[] memory targets,\n        uint256[] memory values,\n        bytes[] memory calldatas,\n        string memory description\n    )\n        public\n        override\n        returns (uint256)\n    {\n        return super.propose(targets, values, calldatas, description);\n    }\n\n    function _execute(\n        uint256 proposalId,\n        address[] memory targets,\n        uint256[] memory values,\n        bytes[] memory calldatas,\n        bytes32 descriptionHash\n    ) internal override(BacchusVaultGovernor) {\n        super._execute(proposalId, targets, values, calldatas, descriptionHash);\n    }\n\n    function _cancel(\n        address[] memory targets,\n        uint256[] memory values,\n        bytes[] memory calldatas,\n        bytes32 descriptionHash\n    ) internal override(BacchusVaultGovernor) returns (uint256) {\n        return super._cancel(targets, values, calldatas, descriptionHash);\n    }\n\n    function _executor()\n        internal\n        view\n        override(BacchusVaultGovernor)\n        returns (address)\n    {\n        return super._executor();\n    }\n\n    function supportsInterface(bytes4 interfaceId)\n        public\n        view\n        override(BacchusVaultGovernor)\n        returns (bool)\n    {\n        return super.supportsInterface(interfaceId);\n    }\n}\n",
  "sourcePath": "/Users/omarelhachimi/WebstormProjects/bacchus-vault/truffle/contracts/openZeppelin/BacchusVaultGovernance.sol",
  "compiler": {
    "name": "solc",
    "version": "0.8.17+commit.8df45f5f.Emscripten.clang"
  },
  "schemaVersion": "3.4.10",
  "updatedAt": "2022-12-10T11:22:09.028Z",
  "networkType": "ethereum",
  "devdoc": {
    "errors": {
      "Empty()": [
        {
          "details": "An operation (e.g. {front}) couldn't be completed due to the queue being empty."
        }
      ]
    },
    "kind": "dev",
    "methods": {
      "onERC1155BatchReceived(address,address,uint256[],uint256[],bytes)": {
        "details": "See {IERC1155Receiver-onERC1155BatchReceived}."
      },
      "supportsInterface(bytes4)": {
        "details": "Returns true if this contract implements the interface defined by `interfaceId`. See the corresponding https://eips.ethereum.org/EIPS/eip-165#how-interfaces-are-identified[EIP section] to learn more about how these ids are created. This function call must use less than 30 000 gas."
      }
    },
    "version": 1
  },
  "userdoc": {
    "kind": "user",
    "methods": {},
    "version": 1
  }
}